:0354E60001A6FF1D
:10356F00E4FF75F010EFA42400F582E5F03401F5C7
:10357F0083E4F075F010EFA42401F582E5F0340137
:10358F00F58374FFF075F010EFA42402F582E5F0D7
:10359F003401F583E4F075F010EFA42403F582E510
:1035AF00F03401F583E4F075F010EFA42404F582F4
:1035BF00E5F03401F583E4F075F010EFA42405F580
:1035CF0082E5F03401F583E4F075F010EFA42406E2
:1035DF00F582E5F03401F583E4F075F010EFA424E3
:1035EF0007F582E5F03401F583E4F075F010EFA4F0
:1035FF002408F582E5F03401F583E4F075F010EF5F
:10360F00A42409F582E5F03401F583E4F075F01098
:10361F00EFA4240AF582E5F03401F583E4F075F0A8
:10362F0010EFA4240BF582E5F03401F583E4F07577
:10363F00F010EFA4240CF582E5F03401F583E4F0EB
:10364F00A3F075F010EFA4240EF582E5F03401F528
:10365F0083E4F0A3F00FEF643B6003023571E4786D
:08366F00A4F608F678A776FF27
:013677002230
:101AD900152E152E152EA82EA60308A60208A60156
:061AE900E52E24FCF52EA1
:101AEF00F80808E4F608F678A4E6FFC3943B400331
:101AFF00021D93E52E2404F8860308E6FA08E6F99A
:101B0F00121483FE1424FD50087003021D25021DBC
:101B1F009375F010EFA42400F582E5F03401F583FE
:101B2F00EEF090000112149CFE75F010EFA424014A
:101B3F00F582E5F03401F583EEF090000212149C6B
:101B4F00FE75F010EFA42402F582E5F03401F58361
:101B5F00EEF090000312149CFE75F010EFA4240316
:101B6F00F582E5F03401F583EEF090000412149C39
:101B7F00FE75F010EFA42404F582E5F03401F5832F
:101B8F00EEF090000512149CFE75F010EFA42405E2
:101B9F00F582E5F03401F583EEF090000612149C07
:101BAF00FE75F010EFA42406F582E5F03401F583FD
:101BBF00EEF090000712149CFE75F010EFA42407AE
:101BCF00F582E5F03401F583EEF090000812149CD5
:101BDF00FE75F010EFA42408F582E5F03401F583CB
:101BEF00EEF090000912149CFE75F010EFA424097A
:101BFF00F582E5F03401F583EEF090000A12149CA3
:101C0F00FE75F010EFA4240AF582E5F03401F58398
:101C1F00EEF075F010EFA4240CF582E5F03401F529
:101C2F0083E4F0A3F075F010EFA42401F582E5F042
:101C3F003401F583E0542F78A7666005087601809C
:101C4F000378A80678A8E6FF78A4E6FE75F010A43E
:101C5F00240BF582E5F03401F583EFF075F010EE0B
:101C6F00A42401F582E5F03401F583E0FF542F78C9
:101C7F00A7F6EF30E712E52D25E0FFE52C33A82E70
:101C8F000808F608A6078009A82E0808A62C08A69B
:101C9F002DAC29AD2AA82E0808E6FE08E6FF12157E
:101CAF000F78A4E6FD75F010A4240EF582E5F0344C
:101CBF0001F583EEF0A3EFF075F010EDA4240EF50F
:101CCF0082E5F03401F583E4F0A37420F075F01091
:101CDF00EDA42400F582E5F03401F583E0B4022F82
:101CEF0078A4E6FF75F010A4240EF582E5F0340118
:101CFF00F583A3E030E01875F010EFA4240EF58201
:101D0F00E5F03401F583E475F00112159A80D1786E
:101D1F00A5061806806E78A5E6606978A4E675F0CA
:101D2F0010A424F1F582E5F03400F583E0542FA8D8
:101D3F002E08F6A82EE4F6A82EE6C3943B5045E6EF
:101D4F0075F010A42401F582E5F03401F583E0F479
:101D5F006032A82EE675F010A42401F582E5F03468
:101D6F0001F583E0542F08667015A82EE675F01064
:101D7F00A42401F582E5F03401F583E04440F0A896
:041D8F002E0680B3E9
:071D9300E52E2407F52E22C6
:022415008F47EF
:10241700E4F548F550F54FF54EF54D755C01F55B64
:10242700F55AF55975F010EFA42402F582E5F0345A
:1024370001F583E0FFE48F54F553F552F551AE53A0
:10244700AD52AC5178081215E28F548E538D528CD1
:102457005175F010E547A42403F582E5F03401F542
:1024670083E0FFE5544FF554E553F553E552F55234
:10247700E551F551AF54AE53AD52FC78081215E251
:102487008F548E538D528C5175F010E547A4240458
:10249700F582E5F03401F583E0FFE5544FF554E5A7
:1024A70053F553E552F552E551F5511255338F481F
:1024B700E548B40109E52B70057F06123E81E4F576
:1024C70058F557F556F555E47F10FEFDFCAB58AAB5
:1024D70057A956A855C31215BE40030225DCE54887
:1024E7006062E4FFFEFDFCA855C31215BE7003022F
:1024F70025C4E47F01FEFDFCA855C31215BE700379
:102507000225C4E47F02FEFDFCA855C31215BE7068
:10251700030225C4E47F03FEFDFCA855C31215BEC4
:1025270070030225C4E47F06FEFDFCA855C31215FF
:10253700BE70030225C4E47F07FEFDFCA855C31245
:1025470015BE6079A958AF5CAE5BAD5AAC59A8010E
:102557001215E2EF5554FFEE5553FEED5552FDECC3
:102567005551FC4D4E4F6055AF471227A28F508EE5
:102577004F8D4E8C4D855849E4FFFEE4FC781012D0
:1025870015CF8F4AE4FFE54FFEE4FDFC78081215EE
:10259700CF8F4BE550FFE48F4CAD4AAF4912489AB5
:1025A7008F4AAD4BAF4912489A8F4BAD4CAF49128A
:1025B700489A8F4C7B007A007949123DB0E5582440
:1025C70001F558E43557F557E43556F556E43555D2
:0825D700F5550224CE85482BC6
:0125DF0022D9
:0C3E8100152EA82EA607E52E24F6F52E1F
:103E8D002404F8E4F608F6E52E2408F87600087602
:103E9D0001E52E240AF8E614601224FE601A14704F
:103EAD0003023F4424FE601B24067021E52E2404EA
:103EBD00F876010876008015E52E2404F8E4F6085E
:103ECD00F6800AE52E2404F876FD087630E52E24DA
:103EDD0006F8E4F608F6E52E2406F8E6FE08E6FFF9
:103EED00C3940FEE9400504FAD07E52E2408F9E76B
:103EFD00FE09E7A805088005C333CE33CED8F9FFF8
:103F0D00E52E2404F8EE56FEEF08564E701BA82E33
:103F1D00A605A82E08F6A82E0808F6E52E2403F807
:103F2D00E4F6FBA92EFA123DB0E52E2406F808069C
:073F3D00E61870A206809F48
:073F4400E52E240BF52E22EF
:02201A00AB0712
:10201C00E4F561F562F563F564F568F567F566F569
:10202C0065F56975F010EBA42405F582E5F0340133
:10203C00F583E0756300F56475F010EBA42408F5E6
:10204C0082E5F03401F583E0756100F56275F010FE
:10205C00EBA4240CF582E5F03401F583E0FEA3E05B
:10206C00FF75F010EBA4240EF582E5F03401F58336
:10207C00E0FCA3E0C39FFDEC9EFCC3E5649562FF0E
:10208C00E5639561FE1214FD75F010EBA4240EF5BA
:10209C0082E5F03401F583E0FCA3E0FD12150FAEF0
:1020AC0062EE2FF569AF69E48F68F567F566F56543
:1020BC00AF68AE67AD66AC6578081215E28F688EB6
:1020CC00678D668C6575F010EBA42406F582E5F03F
:1020DC003401F583E0756300F56475F010EBA4240E
:1020EC0009F582E5F03401F583E0756100F5627560
:1020FC00F010EBA4240CF582E5F03401F583E0FE3E
:10210C00A3E0FF75F010EBA4240EF582E5F034018A
:10211C00F583E0FCA3E0C39FFDEC9EFCC3E5649556
:10212C0062FFE5639561FE1214FD75F010EBA424BB
:10213C000EF582E5F03401F583E0FCA3E0FD121509
:10214C000FAE62EE2FF569AF69E5684FF568E5678C
:10215C00F567E566F566E565F565AF68AE67AD668E
:10216C00AC6578081215E28F688E678D668C657584
:10217C00F010EBA42407F582E5F03401F583E0754B
:10218C006300F56475F010EBA4240AF582E5F034D5
:10219C0001F583E0756100F56275F010EBA4240C79
:1021AC00F582E5F03401F583E0FEA3E0FF75F01055
:1021BC00EBA4240EF582E5F03401F583E0FCA3E0FA
:1021CC00C39FFDEC9EFCC3E5649562FFE5639561DE
:1021DC00FE1214FD75F010EBA4240EF582E5F0341C
:1021EC0001F583E0FCA3E0FD12150FAE62EE2FF5B6
:1021FC0069AF69E5684FF568E567F567E566F5660B
:0C220C00E565F565AF68AE67AD66AC65D2
:0122180022A3
:0227A200AB0783
:1027A400E4F560F55FF55EF55D75F010EBA42400CB
:1027B400F582E5F03401F583E06401705B75F01097
:1027C400EBA4240EF582E5F03401F583E0FEA3E0EA
:1027D400FF75F010EBA4240CF582E5F03401F583C9
:1027E400E0FCA3E0C39FEC9E401475F010EBA4241E
:1027F40001F582E5F03401F583E0F930E610AF032A
:1028040012201A8F608E5F8D5E8C5D022947E9303D
:10281400E60302294702293E75F010EBA42400F5D3
:1028240082E5F03401F583E0FA6402703075F0104B
:10283400EBA4240CF582E5F03401F583A3E020E059
:1028440002806C75F010EBA4240CF582E5F03401E1
:10285400F583A3E020E00302294702293EEA64034A
:10286400600302294775F010EBA4240EF582E5F00D
:102874003401F583E0FEA3E024FFFFEE34FFFE7590
:10288400F010EBA4240CF582E5F03401F583E0FCB0
:10289400A3E0C39FEC9E401775F010EBA42401F550
:1028A40082E5F03401F583E0FA20E60302293A7563
:1028B400F010EBA42405F582E5F03401F583E0FF84
:1028C400E48F60F55FF55EF55DAE5FAD5EAC5D789F
:1028D400081215E28F608E5F8D5E8C5D75F010EBD3
:1028E400A42406F582E5F03401F583E0FFE5604FAA
:1028F400F560E55FF55FE55EF55EE55DF55DAF60AE
:10290400AE5FAD5EFC78081215E28F608E5F8D5E5F
:102914008C5D75F010EBA42407F582E5F03401F525
:1029240083E0FFE5604FF560E55FF55FE55EF55E2A
:10293400E55DF55D800DEA20E609E4F560F55FF5F7
:0B2944005EF55DAF60AE5FAD5EAC5DA8
:01294F002265
:1052C4007EFFE4FD75F010EDA42401F582E5F034D1
:1052D40001F583E0FCF4600FEC542FC39F4004AE4F
:0952E4000580040DBD3BDDAF06A1
:0152ED00229E
:104F59007FFFE4FE75F010EEA42401F582E5F0343C
:104F690001F583E0F460040EBE3BE9EED394004002
:104F79001575F010EEA424F1F582E5F03400F583FF
:0B4F8900E0542FFF8005EE7002AF0621
:014F940022FA
:1052EE00E4FEFD75F010EDA42401F582E5F0340125
:1052FE00F583E0FCF4600FEC542FD39F4004AE0511
:08530E0080040DBD3BDDAF067C
:015316002274
:1029500075F010EFA42401F582E5F03401F583E071
:10296000542FFE7CFFE4FB78A9E6B401037FFF222D
:1029700075F010EBA42400F582E5F03401F583E056
:10298000F9604275F010EBA42401F582E5F0340102
:10299000F583E0542F6E7027E920E723E920E61F36
:1029A00075F010EBA4240BF582E5F03401F583E01B
:1029B000B5050C78A6E66D6006AC03A60580060B8F
:1029C000EB643B70A2ECF47044FB78A9E6B401031D
:1029D0007FFF2275F010EBA42401F582E5F03401AD
:1029E000F583E0FDF46026ED542FB5061C75F0105C
:1029F000EBA42400F582E5F03401F583E0FD20E747
:102A000008ED20E604AC0380040BBB3BBDECF47086
:102A100077FB78A9E6B401037FFF2275F010EBA4E1
:102A20002401F582E5F03401F583E0FDF46059ED11
:102A3000542F6E704D75F010EBA42401F582E5F073
:102A40003401F583E030E63A75F010EBA42400F58C
:102A500082E5F03401F583E0FD30E62675F010EBF9
:102A6000A42400F582E5F03401F583ED54BFF07540
:102A7000F010EBA4240CF582E5F03401F583E4F0CA
:102A8000A3F00BEB643B708AECF47044FB78A9E68E
:102A9000B401037FFF2275F010EBA42401F582E559
:102AA000F03401F583E0FDF46026ED542FB5061CEB
:102AB00075F010EBA42400F582E5F03401F583E015
:102AC000FD20E708ED20E604AC0380040BBB3BBD12
:072AD000BCFF02AC07AF04DC
:012AD70022DC
:103B2500E4755601F555F554F553AF56AE55AD54FC
:103B3500AC53780A1215E28F568E558D548C53E48A
:103B4500F54E75F010E54EA42402F582E5F034013A
:103B5500F583E0FFE48F52F551F550F54FAE51ADC9
:103B650050AC4F78081215E28F528E518D508C4F04
:103B750075F010E54EA42403F582E5F03401F583D4
:103B8500E0FFE5524FF552E551F551E550F550E5A9
:103B95004FF54FAF52AE51AD50FC78081215E28F7C
:103BA500528E518D508C4F75F010E54EA42404F5BE
:103BB50082E5F03401F583E0FFE5524FF552E5511A
:103BC500F551E550F550E54FF54FE5525556FFE5F2
:103BD500515555FEE5505554FDE54F5553FCAB5633
:103BE500AA55A954A853C31215BE70037F01220517
:0C3BF5004EE54E643B6003023B477F003E
:013C010022A0
:10400F00E4F543FFF54453D9BF75C980748025D7B4
:10401F00F5D712533F1253D112533F12533F12533E
:10402F003F12533F1250E8BF0103123F4B124AFD9C
:10403F0012356F12511E752810E5905437F54464F0
:10404F0023601A12557012490C7F007E101246BB66
:10405F00124D9CE4FF123A47124E5E800878A57607
:10406F000178AB760178A9E6B4010312538D78AAD3
:10407F00E6FF6007125185E478AAF6E52360031284
:10408F00531778ABE660DE78A5E6D39400401DE5C4
:10409F0027700878ADE67003124BA775281178A525
:1040AF00E6F51C852925852A2612221978A9E6B45A
:0E40BF00010712538DE478ABF675281080A728
:104AFD00E478ABF678A9F6F570F56FF52B78A4F69A
:104B0D0078A5F678A776FFF51D751BFFF529752A93
:104B1D00C8752C0B752DB8852925852A26F527F501
:104B2D0024F51C78AE76FFF521F522F51FF52078DA
:104B3D00ADF678AAF6F51EF52378A3F6789F76FFE5
:074B4D0012552775730122C8
:10221900E4F546F545F521F522D2A9D28CC3E5228C
:10222900952DE521952C400302241078A5E6D39439
:10223900005003022406E5236007125317D2A9D2DE
:102249008C75F010E545A4240EF582E5F03401F50E
:1022590083E0FEA3E0FF75F010E545A4240CF582A8
:10226900E5F03401F583E0FCA3E0C39FEC9E501C2C
:10227900AF4512241575F010E545A4240CF582E547
:10228900F03401F583E475F00112159A75F010E543
:1022990045A42400F582E5F03401F583E0B4013565
:1022A90075F010E545A4240EF582E5F03401F583B7
:1022B900E0FEA3E0FF75F010E545A4240CF582E5E6
:1022C900F03401F583E0FCA3E0B50709ECB5060598
:1022D900AF4512241575F010E545A4240EF582E5E5
:1022E900F03401F583E0FEA3E0FF75F010E545A4A5
:1022F900240CF582E5F03401F583E0FCA3E06F706E
:1023090002EC6E705675F010E545A42401F582E5DE
:10231900F03401F583E030E61675F010E545A424A4
:1023290000F582E5F03401F583E04440F0802C7536
:10233900F010E545A42400F582E5F03401F583E0C9
:10234900FF20E71775F010E545A42400F582E5F0B4
:102359003401F583EF4480F078A51678A5E660622C
:10236900124F59E4F51FF52075F010E545A4240135
:10237900F582E5F03401F583E0542FB50711C3E583
:1023890020952AE51F9529500678A9E6B401EF752D
:10239900F010E545A42401F582E5F03401F583E068
:1023A900542FFF1252EE8F4575F010EFA4240BF550
:1023B90082E5F03401F583E0FD1229508F45EFF4F1
:1023C900603B78A9E664016034E4F51FF52078AD37
:1023D900E67005122FFF8F46E546600BE4F545F5DB
:1023E90021F522F51FF520C3E522952DE521952C30
:1023F9005003022234E4F521F52202223478A9E6B9
:0B24090064016003022226C2A9C28CFD
:0124140022A5
:0446BB008E498F4A4B
:1046BF00E54A7004E54964106006E54A454970050E
:1046CF0012490C800C752900752AC8752C0B752D95
:1046DF00B885496A854A6BE4F54CF54DF54BE4F521
:1046EF004CF54DAE4CAF4D124D17E4F54CF54D85D5
:1046FF004D82854C83E0FF601BF46018EFB4040219
:10470F00154BAA4CA94D7B01121AD9054BE54BC38A
:10471F00943B40CA78A5E6D394004008124EDD784A
:07472F00AB7601221251B527
:014736002260
:105476007549FFE5905437F51D651B6007851D1BB3
:0754860075240122E4F52466
:01548D0022FC
:043C0200152E152E38
:103C0600A82E76FFE5905437A82E08F6E5736003D4
:103C1600124E5EA82E08E61216A33C5C003C6A0112
:103C26003C4E023C7E033C8C043C92053CA4103C7A
:103C3600A4113C4E123C7E133C9E143C9E153CC087
:103C4600213CB22300003CCCA82E7606789FE66481
:103C5600807073F68070A82E7605789FE664807073
:103C660065F68062A82E7602752900752A64789F0B
:103C7600E664807051F6804EA82E7606789FE6643C
:103C8600807043F68040A82E7608803AA82E7607E4
:103C9600752900752A64802EA82E76098028A82EFC
:103CA6007609789FE66480701DF6801AA82E76063F
:103CB600789FE6B48010E4F6800CA82E7621789FD3
:103CC600E6B48002E4F6A82EE6FFB4FF03E4F5248A
:053CD600052E052E2261
:104BA700123C028F4C124F598F4EE54EF46041056F
:104BB7004EE54C756B00C454F0F56AE4F54FF550BB
:104BC700F54DAE4FAF50124D17855082854F83E09C
:104BD700601EE54E2440855082854F83A3F0AA4F7F
:104BE700A9507B01121AD9054DE54DC3940640D251
:014BF700229B
:102D9800E4F549124F598F4AE54AF460051252C4C6
:102DA8008F4BE54BC3943B4003022EDA75F010E5D8
:102DB8004BA42401F582E5F03401F583E0542F6536
:102DC8004A6003022EDA75F010E54BA42400F58260
:102DD800E5F03401F583E4F075F010E54BA4240127
:102DE800F582E5F03401F58374FFF075F010E54BDA
:102DF800A42402F582E5F03401F583E4F075F010BF
:102E0800E54BA42403F582E5F03401F583E4F0757D
:102E1800F010E54BA42404F582E5F03401F583E4D1
:102E2800F075F010E54BA42405F582E5F03401F5C2
:102E380083E4F075F010E54BA42406F582E5F03440
:102E480001F583E4F075F010E54BA42407F582E55D
:102E5800F03401F583E4F075F010E54BA42408F58F
:102E680082E5F03401F583E4F075F010E54BA42415
:102E780009F582E5F03401F583E4F075F010E54BCF
:102E8800A4240AF582E5F03401F583E4F075F01026
:102E9800E54BA4240BF582E5F03401F583E4F075E5
:102EA800F010E54BA4240CF582E5F03401F583E439
:102EB800F0A3F075F010E54BA4240EF582E5F0348C
:102EC80001F583E4F0A3F078A51678A416054B0263
:052ED8002DB4024BA720
:102FFF00125476E5246401600302311BE5905437C7
:10300F0014602A24FE6026240324FB505224F5600A
:10301F004E24FC604A14601524F470030230FB2424
:10302F00FE7003023107241E600302311BE5277077
:10303F000312120CE51CD394004009E5277005AF6D
:10304F001C1225E012356F7527037F03123E81781E
:10305F00ACE66403700302311B124BA702311BE570
:10306F00276403706185252985262A12356FE4F5BB
:10307F0027F547F548E547701312533F7F62124C0F
:10308F00D38F470548E548C3941440E9E5476003EB
:10309F00123F4BE51EB4030E7F61124CD38F47E5F1
:1030AF0047600312335478ACE6FF123E8178ACE6EA
:1030BF0064036058E51CD394004006E4FFFE1246FB
:1030CF00BB751BFF8046E527701078ACE664036084
:1030DF003B122D9878AB76018032E5276405702C72
:1030EF00F5247F03123E811255878020752705E452
:1030FF0078ACF612538D8011752705E478ACF61273
:0E310F00538D124BA778AB7601E4F524AF2464
:01311D00228F
:0312060002540D82
:10540D00C0E00522E522700205210520E52070028D
:0B541D00051F758CFE758A0CD0E03274
:03120900024C8E06
:104C8E00C0E0C0F0C083C082C0D075D000C000C0EC
:104C9E0001C002C003C004C005C006C007C2AFC237
:104CAE00AA1250B2C28BD2AAD2AFD007D006D0056C
:104CBE00D004D003D002D001D000D0D0D082D08387
:054CCE00D0F0D0E0323F
:1050B200AFE4EF54F064F0702112533F12533F12E9
:1050C200533F7F61124CD3EF600B123354751E03B2
:1050D200752301800A751E018005E4F51EF523740F
:0550E2008025E4F5E467
:0150E70022A6
:10531700E4F51FF520D2A9D28CC3E5209496E51FAA
:10532700940040F5E5A05401FF124F1BC2A9C28C9F
:07533700E4F51FF520F5234A
:01533E00224C
:10533F007FF07EFFE4FDFCC3ED9FEC9E50070DBD9B
:10534F0000010C80F2E4FDFCC3ED9FEC9E50070DB5
:06535F00BD00010C80F20C
:015365002225
:1050E800754514E4FFD2A9D28CE4F51FF520C3E579
:1050F800209464E51F940040F57F62124CD3EF645E
:105108000160091545E545D3940050DDC2A9C28C5C
:05511800E4F51FF52085
:01511D00226F
:10511E00E4FF754505D2A9D28C756A10F56BE4F5DE
:10512E001FF520C3E520942CE51F940140F5124F86
:10513E00D1EF700CBFFF091545E545D3940050DE45
:04514E00C2A9C28CA4
:01515200223A
:1053D10053D9BF12558012554A124C4512558E129F
:0E53E10054BE12551B1254F4125554D2AF2272
:0755800075A90275B2822239
:04558E0075C1D522EC
:0A554A0075A40D75E10675E240221C
:104C4500E59620E7FB759601759708E59620E7FB45
:104C5500759607759707E59620E7FB75960975978D
:104C650007E59620E7FB75960B75970775D7E0E581
:104C75009620E7FB75960F75978043E602E596202B
:094C8500E7FB7596017597012209
:1054BE005389F0438901758CFE758A0C438E02C2A6
:0654CE008DC28CC2A92270
:0C551B00438E08438920758DECD28E224F
:0D54F40075D84053D9BF53D9F175FDFF2283
:0A55540075A14075F80D75A205223F
:08557000C28A75E4F0D2AA2200
:0554E90003A0626361F5
:064BF8007B00787FE6FF60
:104BFE00152EA82EA603152EA82EA605152EA82E08
:064C0E00A607152E152E6D
:104C1400E52E2403F8E6A82EF6E52E2404F8E6A8EB
:104C24002E08F6152EA82E76027B00A92E097A00EE
:0A4C3400E52E2403F8E6FF1240CD40
:074C3E00E52E2405F52E22EE
:104AA400F9E43556FA1215F578081215E2121615BE
:0B4AB400055AAD5A74A02558F8E6FF23
:104ABF00152EA82EA605152EA82EA607152E152ED7
:104ACF00E52E2403F8E6A82EF6A82E08E4F6152EF8
:104ADF00A82E7601FBA92E09FAE52E2403F8E6FF8E
:074AEF00122EDDA82EE6FFE8
:074AF600E52E2404F52E2239
:103F4B00E4787EF6787EE6FFC39402400302400ECF
:103F5B0074A02FF8E6787FF6FF7B007D00124BFEF6
:103F6B007D01124BF87BFF7D12124BFA7D13124B26
:103F7B00F87BAA7D14124BFA7BAA7D15124BFA7BA8
:103F8B00AA7D16124BFA7BAA7D17124BFA7B007D8A
:103F9B0002124BFA7B007D03124BFA7B007D04125D
:103FAB004BFA7B007D05124BFA7B007D06124BFA18
:103FBB007B007D07124BFA7B007D08124BFA7B00CE
:103FCB007D09124BFA7B007D0A124BFA7B007D0BAD
:103FDB00124BFA7B007D0C124BFA7B007D0D124BC2
:103FEB00FA7B007D0E124BFA7B007D0F124BFA7B96
:103FFB00007D10124BFA7B007D11124BFA787E0676
:03400B00023F4F22
:01400E00228F
:02335400152E34
:1033560078A2E6A82EF6FF7B007D00124BFE7B00CE
:103366007D01A82EE6FF124BFE7BFF7D12A82EE6FE
:10337600FF124BFE7B007D13A82EE6FF124BFE7B51
:103386002A7D14A82EE6FF124BFE7B007D15A82E83
:10339600E6FF124BFE7B007D16A82EE6FF124BFEC3
:1033A6007B007D17A82EE6FF124BFE7B007D02A850
:1033B6002EE6FF124BFE7B007D03A82EE6FF124B86
:1033C600FE7B007D04A82EE6FF124BFE7B007D05EA
:1033D600A82EE6FF124BFE7B007D06A82EE6FF1206
:1033E6004BFE7B007D07A82EE6FF124BFE7B007D81
:1033F60008A82EE6FF124BFE7B007D09A82EE6FFED
:10340600124BFE7B007D0AA82EE6FF124BFE7B00C8
:103416007D0BA82EE6FF124BFE7B007D0CA82EE648
:10342600FF124BFE7B007D0DA82EE6FF124BFE7BA6
:10343600007D0EA82EE6FF124BFE7B007D0FA82E08
:10344600E6FF124BFE7B007D10A82EE6FF124BFE18
:0B3456007B007D11A82EE6FF124BFE4C
:03346100052E2213
:0A4CD300152EA82EA607152E152E8B
:104CDD00A82E7603A82E08E4F6A82EE660187D18F7
:104CED000808E6FF124ABFA82E08A607A82E16A888
:104CFD002E08E6B4D2E3A82E08E6B4D2047F0180D4
:034D0D00027F0022
:074D1000052E052E052E22E1
:103DB000152E152E152EA82EA60308A60208A6015C
:063DC000E52E24F9F52EAA
:103DC6002407F8860308E6FA08E6F912148375F064
:103DD60003A4A82EA6F008F690000112149CA82EA3
:103DE6000808F690000212149CFFE52E2403F8A69C
:103DF6000790000312149CFFE52E2404F8A607A8DA
:103E06002EE6FA08E6FB7C007D0FFFAE0212156473
:103E1600E52E2405F8A6077C007D0FAF03AE02123F
:103E26001564E52E2406F8A605E52E2405F8E6FF1A
:103E3600C39400403FEFD394025039A82E0808E6F9
:103E4600FBE52E2406F8E6FD74A02FF8E6FF124FD8
:103E5600A1E52E2403F8E6FBE52E2406F8E6041277
:103E66004F95E52E2404F8E6FBE52E2406F8E62415
:043E760002124F9550
:073E7A00E52E240AF52E22BB
:0C4F9500FDE52E2405F8E624A0F8E6FF58
:104FA100152EA82EA603152EA82EA605152EA82E61
:024FB100A60751
:104FB300A82E08E62402F57CA82E0808E6FBAD7CA3
:074FC300A82EE6FF124BFED1
:074FCA00052E052E052E2225
:0B5527007F0A9000507464F0A3DFFCCA
:015532002256
:0E489A00152EA82EA605152EA82EA607152E43
:1048A800A82E0808E6A82EF6789FE6600418E68089
:1048B8001578A3E664827041A82E08E62450F58294
:1048C800E43400F583E0FCE41213CEE4FBFA79C883
:1048D8007842121327C004C005C006C007A82E08D6
:1048E80008E6FCE41213CED003D002D001D00012A7
:0D48F800121E121402A82EA607A82EE6FF1D
:07490500052E052E052E22F0
:063678008B348A3589360F
:10367E00E4754201F541F540F53F90000512149CAA
:10368E00FFE48F3AF539F538F537AE39AD38AC374A
:10369E0078081215E28F3A8E398D388C37900006E5
:1036AE0012149CFFE53A4FF53AE539F539E538F550
:1036BE0038E537F537AF3AAE39AD38FC7808121524
:1036CE00E28F3A8E398D388C3790000712149CFF9A
:1036DE00E53A4FF53AE539F539E538F538E537F598
:1036EE0037E4F53EF53DF53CF53BE47F0AFEFDFC87
:1036FE00AB3EAA3DA93CA83BC31215BE5054A93EF1
:10370E00AF42AE41AD40AC3FA8011215E2EF553AC3
:10371E00FFEE5539FEED5538FDEC55374D4E4F60E9
:10372E001AAB34AA35A93690000212149CFF7450BD
:10373E00253EF582E43400F583EFF0E53E2401F5F5
:10374E003EE4353DF53DE4353CF53CE4353BF53B9B
:10375E008098AB34AA35A93690000312149C2480AD
:0C376E0078A3F6E4789FF61876FFF57358
:01377A00222C
:104D9C007B007A0079457F08122C49E545F4601DAB
:104DAC00AD46AF4512489A8F46AD47AF4512489A6B
:104DBC008F47AD48AF4512489A8F48800B75450810
:104DCC00E4F546F5477548FF7B007A007945023DCE
:014DDC00B026
:0617AE008B558A56895795
:1017B400E4F559E559B40419AB55AA56A95775F07F
:1017C40004A4F58285F08312167F00000000021A3B
:1017D400CCE559B408004003021ACC9017E6F82867
:1017E40028730217FE0218560218BB021920021AA7
:1017F400CC0219850219EA021A4FE4F558755A0207
:10180400124AB68F5BE4FCFDFEAB55AA56A95712EB
:101814001615AB55AA56A957124AA98F5BAB55AA00
:1018240056A957C003C002C00112165FEB4FFFEA6E
:10183400FEE9FDE8FCD001D002D003121615AB5529
:10184400AA56A957124AA98F5BAB55AA56A95702A3
:101854001AB1E4F558755A05124AB68F5BE4FCFDDB
:10186400FEAB55AA56A95790000412162FE924047A
:10187400F9E43A124AA88F5BAB55E5572404F9E41E
:101884003556FAC003C002C00112165FEB4FFFEADF
:10189400FEE9FDE8FCD001D002D003121615AB55C9
:1018A400E5572404124AA48F5BAB55E5572404F989
:1018B400E43556FA021AB1E4F558755A08124AB6D4
:1018C4008F5BE4FCFDFEAB55AA56A95790000812A5
:1018D400162FE92408F9E43A124AA88F5BAB55E5C0
:1018E400572408F9E43556FAC003C002C0011216A1
:1018F4005FEB4FFFEAFEE9FDE8FCD001D002D00324
:10190400121615AB55E5572408124AA48F5BAB5544
:10191400E5572408F9E43556FA021AB1E4F5587586
:101924005A0B124AB68F5BE4FCFDFEAB55AA56A9CE
:101934005790000C12162FE9240CF9E43A124AA825
:101944008F5BAB55E557240CF9E43556FAC003C058
:1019540002C00112165FEB4FFFEAFEE9FDE8FCD07E
:1019640001D002D003121615AB55E557240C124AC8
:10197400A48F5BAB55E557240CF9E43556FA021AEB
:10198400B1755801755A02124AB68F5BE4FCFDFE2C
:10199400AB55AA56A95790001412162FE92414F92E
:1019A400E43A124AA88F5BAB55E5572414F9E435A1
:1019B40056FAC003C002C00112165FEB4FFFEAFEE5
:1019C400E9FDE8FCD001D002D003121615AB55E5B1
:1019D400572414124AA48F5BAB55E5572414F9E439
:1019E4003556FA021AB1755801755A05124AB68F5E
:1019F4005BE4FCFDFEAB55AA56A9579000181216DD
:101A04002FE92418F9E43A124AA88F5BAB55E5573D
:101A14002418F9E43556FAC003C002C00112165F57
:101A2400EB4FFFEAFEE9FDE8FCD001D002D003123F
:101A34001615AB55E5572418124AA48F5BAB55E530
:101A4400572418F9E43556FA021AB1755801755A33
:101A540008124AB68F5BE4FCFDFEAB55AA56A957A3
:101A640090001C12162FE9241CF9E43A124AA88F9C
:101A74005BAB55E557241CF9E43556FAC003C002A4
:101A8400C00112165FEB4FFFEAFEE9FDE8FCD0014E
:101A9400D002D003121615AB55E557241C124AA4E4
:101AA4008F5BAB55E557241CF9E43556FAC003C0E7
:101AB40002C00112165FEB4FFFEAFEE9FDE8FCD01D
:101AC40001D002D0031216150559E559C3940850E4
:041AD400030217B73B
:011AD80022EB
:02311E008F46DA
:103120007B007A00797E1217AEE4F521F522F51FB7
:10313000F520789FE6F5487681E4F547789EE6FF2E
:1031400074492547F8A6070547E547B408EED2A914
:10315000D28CC3E52294E8E5219403400302322790
:10316000E4F54778A9E66401700302321DE547647F
:10317000047003023211E54630E709E54764077041
:1031800003023211854751E54725E025E0247EF80A
:10319000121653E4FFFEE4FC78101215CF8F52E5AF
:1031A0004725E025E0247EF8121653E4FFE4FDFCF9
:1031B00078081215CF8F53E54725E025E0247EF8E7
:1031C0001216538F5474492547F8E6789EF6AD528F
:1031D000AF5112489A8F52AD53AF5112489A8F5344
:1031E000AD54AF5112489A8F547B007A0079511236
:1031F0003DB0E4F51FF520C3E5209405E51F9400DC
:1032000040F574492547F8E6C39405400474FB264D
:10321000F60547E547C39408500302316378A9E6F1
:1032200064016003023152C2A9C28CE4F521F52287
:0A323000F51FF520789FA648F57DF4
:01323A002271
:023A47008F46A8
:103A4900E4F521F522F51FF520789FE6F54C18E6F7
:103A5900F54DA67D087681E4F54B744E254BF8E4C7
:103A6900F6054BE54BB408F2D2A9D28CC3E52294F2
:103A7900D0E52194074003023B0DE4F54B78A9E614
:103A890064016076E54B64046067E54630E706E566
:103A99004B6407605C7B007A007947AF4B122C4975
:103AA900E547F46055744E254BF8E6789EF6AD4827
:103AB900AF4712489A8F48AD49AF4712489A8F4984
:103AC900AD4AAF4712489A8F4A7B007A007947126C
:103AD9003DB0E4F51FF520C3E5209405E51F9400EA
:103AE90040F5744E254BF8E6C3945F5004740526DF
:103AF900F6054BE54BC39408408378A9E664016059
:103B090003023A75C2A9C28CE4F521F522F51FF525
:0B3B190020789EA64D854D7D08A64C2F
:013B2400227E
:022C49008F56A4
:102C4B00E4F558F55CF55BF55AF559F560F55FF56C
:102C5B005EF55D047E00A807088005C333CE33CE36
:102C6B00D8F9FFEE3395E08F608E5FF55EF55DE48E
:102C7B00F55775F010E557A42401F582E5F0340102
:102C8B00F583E0F47003022D4475F010E557A4248E
:102C9B0002F582E5F03401F583E0FFE48F5CF55B30
:102CAB00F55AF559AE5BAD5AAC5978081215E28F4F
:102CBB005C8E5B8D5A8C5975F010E557A42403F587
:102CCB0082E5F03401F583E0FFE55C4FF55CE55BF5
:102CDB00F55BE55AF55AE559F559AF5CAE5BAD5A64
:102CEB00FC78081215E28F5C8E5B8D5A8C5975F04F
:102CFB0010E557A42404F582E5F03401F583E0FFD9
:102D0B00E55C4FF55CE55BF55BE55AF55AE559F586
:102D1B0059E55C5560FFE55B555FFEE55A555EFD79
:102D2B00E559555D4D4E4F6005755801800B0557A4
:102D3B00E557643B6003022C7DE558604AE556126B
:102D4B0014C975F010E557A42405F582E5F034019C
:102D5B00F583E09000011214DB75F010E557A42405
:102D6B0006F582E5F03401F583E09000021214DBE6
:102D7B0075F010E557A42407F582E5F03401F583CF
:0C2D8B00E09000030214DB74FF1214C976
:012D97002219
:1034640012010200000000407C182905000001023E
:10347400030109022900010100E000090400000120
:103484000300000009210101000122380007058121
:10349400030A000A0705010311000A0600FF0901D7
:1034A400A101050C0906A1021900296615002501D0
:1034B40085017508950B8102C00514092BA1021919
:1034C4000129661500250185027508950B092C91C3
:1034D40002C0C04C000000000105000100420000D1
:1034E40000040000003000530065006C00650063B8
:1034F4000074006900760065005300750073007065
:103504000065006E00640045006E00610062006C9E
:1035140000650064000000040000000100000004D5
:10352400030904140341006C00690065006E007710
:10353400006100720065000A034100570031003346
:10354400000C03300033002E003000300012034D15
:10355400005300460054003100300030005500FF95
:0B3564003523FF3527FF353BFF3545C1
:0D550100757901757A00757BA075780C2214
:0D550E007575017576007577B075740C2207
:10395F009000B1E0FFE5706003023A43EF1216A347
:10396F0039AF0139AF0239AF0339AF0439CA05395D
:10397F00B80639BE0739E60839E90939EC0A39BB07
:10398F000B39EF0C39DD0E3A46113A461239F21364
:10399F0039FE1C3A1E1D3A261E3A341F00003A3FCC
:1039AF007B017A0079B1021AD902548E02545D78E4
:1039BF00A976019000B2E078ACF62278ABE664010C
:1039CF0060759000B2E078ADF678AB7601227B019E
:1039DF007A0079B002323B02440C02507B02482538
:1039EF00025587748025D7F5D775EF100200009028
:1039FF0000B3E0FD14600714600C240270399000CE
:103A0F00B2E0FF023CDB7B017A0079B0023678909E
:103A1F0000B2E078AAF6229000B2E0FF125578903B
:103A2F0000A0EFF0229000B2E0FFA3E0FD02553FAF
:073A3F0075281222124E1E31
:013A4600225D
:10548E009000A0E528F0A3E51EF0E4A3F0A3F0A39E
:08549E00F0A3F0A3F0A3F0223B
:10545D009000A07430F0A3F0A3F0A37433F0A37404
:09546D0030F0A3F0A3F0A3F0223B
:10538D0078ACE6FF6405600F123E8112356FE4784C
:10539D00A5F678A4F6F51CE4F570F56F78A9F67509
:0353AD00281022A3
:07558700C2AF43D94080FED2
:025185008F4554
:10518700EF24FE60181460172482600A14600E145E
:10519700600D24827013AF4512311E800C8005AF5D
:0D51A7004512311EAF45123A47E478AAF6D2
:0151B40022D8
:0312030002550190
:03559A0002395F74
:045592000100000014
:10418600E50E700EE50F700AE5127006E51364027F
:104196006003125443E50C247F6011146028240246
:1041A6007077E5107073E5116011806DE508B40451
:1041B60008E5107004E5116002805E7509FF750A56
:1041C60055750B948049E508B40404E51060028037
:1041D60048E511B4811BE519B4030B7509FF750A8F
:1041E60055750B9280097509FF750A55750B9480F4
:1041F6001EE511B40121E519B4030B7509FF750A13
:1042060055750B9280097509FF750A55750B9475DE
:10421600160075170280058000125443E5186404E1
:104226006013E59620E7FB759611759740751801A2
:06423600E4F514F5152269
:10452400E508B40418E50C60616401605DE50E7093
:1045340059E5107055E5127051E5136002804BE5A2
:104544000C24FE7045E50F701DE511B48118E59645
:1045540020E7FB75960E759701E59620E7FB7596A7
:1045640011759740801FE50F7023E511B4011EE516
:104574009620E7FB75960E759701E59620E7FB7587
:104584009614759780E4F5198003125443E5962038
:10459400E7FB75960EE4F597E5186404600BE59661
:0A45A40020E7FB7596117597482279
:1045AE00E508B40418E50C60616401605DE50E7009
:1045BE0059E5107055E5127051E5136002804BE518
:1045CE000C24FE7045E50F701DE511B48118E596BB
:1045DE0020E7FB75960E759701E59620E7FB75961D
:1045EE0011759710801FE50F7023E511B4011EE5BC
:1045FE009620E7FB75960E759701E59620E7FB75FD
:10460E0096147597207519038003125443E596206E
:10461E00E7FB75960EE4F597E5186404600BE596D6
:0A462E0020E7FB75961175974822EE
:104DDD00E50C7019E5107015E5117011E512700DE7
:104DED00E5137009E50E7005E50F30E70312544326
:104DFD00751805E50F60057508038003750802E554
:104E0D00186404600BE59620E7FB759611759748BD
:014E1D002272
:102AD800E50E24DF7003022BB8147003022BCD24FB
:102AE80022B406004003022BF6902AF8F82828732F
:102AF800022BDE022B0A022B18022B39022B7C0236
:102B08002B8C7509FF750A34750B649034648070DA
:102B18007509FF750A34750B76903479E493FE9045
:102B28003478E4937C002400F517EC3EF516022B6C
:102B3800F9E50FB4EE0E7509FF750A35750B51905E
:102B48003551803CE50FD394034003022BF675F012
:102B580003E50FA42463F582E5F03435F583E493A7
:102B6800FB740193FA740293F98B098A0AF50B1224
:102B78001483804A7509FF750A34750B7F90347F7A
:102B8800E493803AE50FB481107509FF750A34752E
:102B98000B91903491E4938025E50FB401107509E9
:102BA800FF750A34750B98903498E4938010803E32
:102BB8007509FF750A34750B88903488E493751687
:102BC80000F517802C7509FF750A34750B9F75166B
:102BD80000751738801BE511B405117509FF750AD2
:102BE80034750BD775160075174C80058000125484
:102BF80043E50E6401601CE50E64026016E50E6490
:102C0800036010E50E6404600AE50E64056004E5DF
:102C18000E7014C3E5139517E49516500AE5127063
:102C280006851216851317E51864046013E59620C7
:102C3800E7FB759611759740751801E4F514F515BD
:012C48002269
:1049DF00E50CB4801AE50E7016E50F7012E5107035
:1049EF000EE511700AE5127006E5136401600512F9
:1049FF0054438028E508B4040F7509FF750A5575EF
:104A0F000B92751600751701E508B4030F7509FFB2
:104A1F00750A55750B94751600751701E518640422
:104A2F006013E59620E7FB75961175974075180191
:064A3F00E4F514F5152258
:1047B000E5086402601FE50C701BE5107017E51139
:1047C0007013E512700FE513700BE50E7007E50F1F
:1047D000D3940140051254438039E50FD39400402F
:1047E0002C750804E4F519E59620E7FB75960E751F
:1047F0009701E59620E7FB759612759704E59620DC
:10480000E7FB75960EE4F59712559680067508033A
:10481000751903E5186404600BE59620E7FB7596AF
:0548200011759748220C
:104B5400E5086404701FE50CB4811AE50E7016E5CF
:104B64000F7012E510700EE511700AE5127006E57B
:104B74001364016005125443800F7509FF750A55CB
:104B8400750B94751600751701E51864046013E538
:104B94009620E7FB759611759740751801E4F51496
:034BA400F51522E2
:10515300E50CB40118E5127014E5137010E50E7038
:105163000CE50F7008E5107004E511600312544359
:10517300E5186404600BE59620E7FB7596117597B7
:025183004822C0
:03559D0002544372
:0355A0000254436F
:0355A3000254436C
:1054D400E5186404600BE59620E7FB759611759753
:0254E40048225C
:10526C00121203857909857A0A857B0B75160085E0
:10527C007817E51864046013E59620E7FB75961122
:0C528C00759740751801E4F514F5152223
:1052980012550E85750985760A85770B8512168550
:1052A8001317E51864046013E59620E7FB7596115B
:0C52B800759740751802E4F514F51522F6
:10482500E56F706E9000B2E004605624FEB4090096
:10483500505D90484575F003A4C58325F0C5837385
:1048450002486002486A0248940248940248650298
:10485500486F02487902487402487E756A10801CC8
:10486500756A508017756A208012756A60800D75AB
:104875006A808008756A708003756A90756B008020
:104885000E9000B3E0756B00F56AA3E0426BE4752A
:054895006F0102523F1B
:10440C00E56F60030244949000B2E004605624FE11
:10441C00B40900505D90442F75F003A4C58325F0BA
:10442C00C5837302444A02444F02447E02447E0216
:10443C00445402445902446302445E024468756A5F
:10444C0010801C756A208017756A508012756A601E
:10445C00800D756A808008756A708003756A907526
:10446C006B00800E9000B3E0756B00F56AA3E04220
:10447C006BE4E56F7009124638EF600F12497875DE
:0B448C007100757210756F01757001F2
:014497002202
:104E1E007571007572107F0174B02FF582E4340045
:104E2E00F583E0FE0572E572AC717002057114F542
:104E3E00828C83EEF00FBF0CDF756D00756E0B75F7
:0F4E4E007100757210124D5AE4F56DF56EF57026
:014E5D002232
:10507B00757100757210E4FF0572E572AC71700208
:10508B00057114F5828C8374FFF00FBF0BEA756DFD
:10509B0000756E0B757100757210124D5AE4F57038
:0650AB00F56FF56DF56ED6
:0150B10022DC
:0E120C00E4F56AF56B124638EF60031249787C
:01121A0022B1
:0225E0008F4921
:1025E200E549C3940250030227A1E4F56AF56B1290
:1025F2004638124978E4F54AE54AC3954940030250
:1026020027A175710075721075F010E54AA42400B7
:10261200F582E5F03401F583E0540FFF0572E572AF
:10262200AC717002057114F5828C83EFF075F010B5
:10263200E54AA42401F582E5F03401F583E0FF05C3
:1026420072E572AC717002057114F5828C83EFF041
:1026520075F010E54AA42402F582E5F03401F58311
:10266200E0FF0572E572AC717002057114F5828C9F
:1026720083EFF075F010E54AA42403F582E5F03407
:1026820001F583E0FF0572E572AC71700205711409
:10269200F5828C83EFF075F010E54AA42404F582EC
:1026A200E5F03401F583E0FF0572E572AC7170026A
:1026B200057114F5828C83EFF075F010E54AA424BD
:1026C20005F582E5F03401F583E0FF0572E572ACB1
:1026D200717002057114F5828C83EFF075F010E5CC
:1026E2004AA42406F582E5F03401F583E0FF057281
:1026F200E572AC717002057114F5828C83EFF0758E
:10270200F010E54AA42407F582E5F03401F583E0F0
:10271200FF0572E572AC717002057114F5828C834B
:10272200EFF075F010E54AA42408F582E5F03401D3
:10273200F583E0FF0572E572AC717002057114F564
:10274200828C83EFF075F010E54AA42409F582E546
:10275200F03401F583E0FF0572E572AC7170020599
:102762007114F5828C83EFF075F010E54AA4240A07
:10277200F582E5F03401F583E0FF0572E572AC7194
:102782007002057114F5828C83EFF0757100757219
:0F27920010756D00756E0B124D5A054A0225FA2F
:0127A1002215
:103CDB008F348D35E534D394644003023DAFE53525
:103CEB00D394014003023DAF756AA0756B00124679
:103CFB00381249787571007572100572E572AE71E4
:103D0B007002057114F5828E83E534F00572E5724D
:103D1B00AE717002057114F5828E83E535F0057274
:103D2B00E572AE717002057114F5828E83E4F005B5
:103D3B0072E572AE717002057114F5828E83E4F038
:103D4B000572E572AE717002057114F5828E83E413
:103D5B00F00572E572AE717002057114F5828E83F7
:103D6B00E4F00572E572AE717002057114F5828E86
:103D7B0083E4F00572E572AE717002057114F58281
:103D8B008E83E4F0F571757210F56D756E0B124D37
:103D9B005A789EA634123C02E478A3F67573017828
:053DAB009EE6F57D22FB
:104E5E00756AA0756B007F107E00124D177E007F65
:104E6E00108F828E83E0D3946440037464F08F823B
:104E7E008E83A3E0D3940140078F828E83A3E4F048
:0F4E8E008F828E83E0789EF6A3E02480789FF6D3
:014E9D0022F2
:10323B008B348A358936756AB0756B001246381235
:10324B004978757100757210AB34AA35A9369000A8
:10325B000212149CFF0572E572AC717002057114B9
:10326B00F5828C83EFF090000312149CFF0572E53E
:10327B0072AC717002057114F5828C83EFF09000C3
:10328B000412149CFF0572E572AC71700205711487
:10329B00F5828C83EFF090000512149CFF0572E50C
:1032AB0072AC717002057114F5828C83EFF00572AC
:1032BB00E572AE717002057114F5828E83E4F00530
:1032CB0072E572AE717002057114F5828E83E4F0B3
:1032DB000572E572AE717002057114F5828E83E48E
:1032EB00F00572E572AE717002057114F5828E8372
:1032FB00E4F0F571757210F56D756E0B124D5AABDE
:10330B0034AA35A93690000212149C752A00F529AF
:10331B0090000312149C422AE52A45297005F529D1
:10332B00752AC8AB34AA35A93690000412149C75C3
:10333B002D00F52C90000512149C422DE52D452CEB
:09334B007006752C0B752DB822DB
:10490C00756AB0756B007D107C007F107E00124DB7
:10491C00177C007D108D828C83E0FFF4600AEF75AC
:10492C002A00F529A3E0422AE52A45297005F52934
:10493C00752AC88D828C83A3A3E0FFF46010EF75F9
:10494C002D00F52C8D828C83A3A3A3E0422DE52DA5
:10495C00452C600BC3E52D952AE52C9529500C753B
:0B496C002C0B752DB8752900752AC8AA
:01497700221D
:0B521200C2FF7F0112521DD2FA7F0183
:10521D00438E10C2CAC2CF7E007C007D181214FDD1
:10522D00C3E49FFFE49EF5CD8FCCD2CA30CFFDC233
:02523D00CA2283
:10463800C2AFC2FA7F0112521D75A35020FF0B7F33
:104648003212521D20FFF57F0022125212C2FA7F49
:104658000112521D75A30120FF0B7F3212521D203B
:10466800FFF57F0022C2FFE4F5A320FF0B7F321283
:10467800521D20FFF57F0022125212C2FA7F01124A
:10468800521D75A30520FF0B7F3212521D20FFF526
:104698007F0022C2FFE4F5A320FF0B7F3212521DD8
:1046A80020FFF57F0022125212E5A320E0CDD2AF01
:0346B8007F01225D
:1051E400C2FA7F0112521D75A30630FFFD1252123E
:1051F400C2FA7F0112521D75A30530FFFDC2FFE400
:0E520400F5A330FFFD125212E5A320E0E322D5
:1053B000C2FA7F0112521D75A30530FFFDC2FFE442
:1053C000F5A330FFFDC2FF7F0112521DD2FAAFA339
:0153D00022BA
:02497800152EFA
:10497A00A82E76FFC2AF800AA82EE66402600C1247
:10498A0051E41253B0A82EA60780EDC2FA7F011295
:10499A00521D75A32030FFFDC2FFE4F5A330FFFDD1
:1049AA00C2FFE56A54F0F5A330FFFDC2FFE4F5A3A8
:1049BA0030FFFD125212C2FA75A30530FFFDC2FF85
:1049CA00E4F5A330FFFDC2FF125219E5A320E0E689
:0249DA00D2AF5A
:0349DC00052E2283
:08473700152EA82EA607152E71
:10473F00A82E76FFC2AF800AA82EE66402600C1284
:10474F0051E41253B0A82EA60780EDC2FA7F0112D2
:10475F00521D75A30230FFFDC2FFE4F5A330FFFD2C
:10476F00C2FFE56AF5A330FFFDC2FFE56BF5A3308D
:10477F00FFFDC2FFA82E08E6F5A330FFFD1252126F
:10478F00C2FA75A30530FFFDC2FFE4F5A330FFFDAC
:0C479F00C2FF125219E5A320E0E6D2AFE1
:0547AB00052E052E2281
:104FD100C2AFC2FA7F0112521D75A30330FFFDC299
:104FE100FFE4F5A330FFFDC2FFE56AF5A330FFFD45
:104FF100C2FFE56BF5A330FFFDC2FFE4F5A330FF6F
:09500100FD125212D2AFAFA3223E
:044D5A00152E152ECF
:104D5E00A82EE4F608F6A92EC309E7956E19E79575
:104D6E006D5026857282857183E0FF12473705727A
:104D7E00E57270020571056BE56B7002056AA82E6F
:094D8E000806E61870D00680CD7D
:054D9700052E052E228F
:02523F00152E2A
:10524100A82EE4F6A82EE6C3940B501C124FD1A849
:105251002EE624A0F582E43400F583EFF0056BE53A
:085261006B7002056A0680DC97
:03526900052E22ED
:0D4D1700152E152EA82EA60608A607152E8F
:104D2400A82EE4F6A82EE6C3940B5023124FD1A864
:104D34002E080806E618860470010614F5828C8392
:0F4D4400EFF0056BE56B7002056AA82E0680D5AF
:074D5300052E052E052E229E
:0554EE00031800030398
:03121B0002437417
:10437400C0E0C0F0C083C082C0D075D000C000C00F
:0D43840001C002C003C004C005C006C00790
:10439100E59620E7FB759686E59620E7FB85973045
:1043A100E59620E7FB759682E59620E7FB85973138
:1043B100E59620E7FB759684E59620E7FB85973225
:1043C100E53030E10312555EE53030E2031254A6C8
:1043D100E53130E003121D9AE53130E103125596C3
:1043E100E53230E103124A45E53030E0031255670A
:1043F100D007D006D005D004D003D002D001D00020
:0B440100D0D0D082D083D0F0D0E032C9
:1054A600750802E59620E7FB759601759701E4F508
:0854B60018751903751A032291
:08555E000534E5347002053349
:015566002222
:085567000534E5347002053340
:01556F002219
:101D9A00E59620E7FB75960EE4F597E59620E7FBB6
:101DAA00759691E59620E7FB859733E518B4050DFE
:101DBA00E59620E7FBE4F596850F97F518E53330AD
:101DCA00E20EE59620E7FB759611E4F597F51822E1
:101DDA00E53330E419E59620E7FB75961175970807
:101DEA00E59620E7FB759611759780E4F518E518D6
:101DFA006003021EE7E53320E003021EE77B007A58
:101E0A0000790C7D087C007F20125043E50FFE7C90
:101E1A0000E4250EF50FEC3EF50EE511FEE4251063
:101E2A00F511EC3EF510E513FEE42512F513EC3E30
:101E3A00F512E50C547F64217039E50D24FE601D0E
:101E4A0014602424FA601014601814601F240A70A5
:101E5A002012526C021EE7125298021EE712559D7A
:101E6A00807B1254D480761255A080711255A380BB
:101E7A006C8067E50D24AB605C2455B40C00505AA5
:101E8A00901E91F8282873021EB5021EBA021EE49B
:101E9A00021EBF021EE4021EC4021EC9021EE40282
:101EAA001ECB021ED0021ED5021EDA124186802DDA
:101EBA0012452480281245AE8023124DDD801E80F3
:101ECA00141249DF80171247B08012124B54800D4A
:101EDA001251538008122AD88003125443E5186419
:101EEA00016003021F7BE53330E103021F7BE596A5
:101EFA0020E7FB759691E59620E7FB859733E53356
:101F0A0030E40320E06B753302C3E5179440E5160D
:101F1A009400AB09AA0AA90B402D7D407C007F20C2
:101F2A00124E9E7440250BF50BE4350AF50A74C06F
:101F3A002517F51774FF3516F51674402515F5158E
:101F4A00E43514F514800FAD17AC167F20124E9E9F
:101F5A00433308E4F518E515B5130BE514B5120675
:101F6A00433308E4F518E59620E7FB7596118533A7
:101F7A0097E51864026003022019E59620E7FB75CD
:101F8A009691E59620E7FB859733E53320E0030237
:101F9A002019753340C3E5179440E5169400AB0940
:101FAA00AA0AA90B402D7D407C007F201250437461
:101FBA0040250BF50BE4350AF50A74C02517F51709
:101FCA0074FF3516F51674402515F515E43514F524
:101FDA0014800FAD17AC167F20125043433308E428
:101FEA00F518E515B5130BE514B51206433308E4E5
:101FFA00F518E5187008E50DB4090312559AE518A5
:0F200A0064046005E59620E7FB75961185339712
:0120190022A4
:04559600E4F51922FD
:104A4500E4F533E59620E7FB75960E759701E59637
:104A550020E7FB759694E59620E7FBAF97E519B43B
:104A6500030CE59620E7FB75961475972022EF3029
:104A7500E60BE59620E7FB75961475978012550EA3
:104A8500E574FD7C00AB75AA76A9777F21125043AA
:0E4A950012559AE59620E7FB759614E4F59706
:014AA30022F0
:065043008B348A3589362A
:10504900ED4C602D8F964396C0E4FFFEC3EF9DEEB5
:105059009C501BE59620E7FBAB34AA35A9368F8215
:105069008E83E5971214DB0FBF00010E80DEE4F595
:0150790096A0
:01507A002213
:0A4E9E008C348D358B368A37893845
:104EA800E5354534602EE59620E7FB8F96E4FFFE56
:104EB800C3EF9535EE9534501BAB36AA37A9388F1A
:104EC800828E8312149CF597E59620E7FB0FBF00AE
:044ED800010E80DC6B
:014EDC0022B3
:10544300E59620E7FB75960EE4F597E59620E7FBD6
:0A5453007596117597207518042254
:1051B500E4F56A124FD1BFFF25E4F54EE54E6404D0
:1051C5006013854E4FE4F550F5517552FFFB7A009B
:0E51D500794F123DB0054EE54EC3940A40DE00
:0151E30022A9
:064EDD00E52E24FBF52E7A
:104EE300123B25A82EEFF67028E51EB40323A82E47
:104EF30008760AA82E0808E4F6E52E2403F8E4F65B
:104F0300E52E2404F876FF7B00A92E097A00123DD2
:014F1300B0ED
:074F1400E52E2405F52E2215
:10500A00A9E27F0420842FAE071FEE602975E240D3
:10501A00C285E4FE0EBEFFFCD2857DF07CFF2085B2
:10502A000AED1DAA0470011C4A70F3E4FE0EBE0AC2
:08503A00FCE4F5E280CE89E2FE
:01504200224B
:102EDD00152E152E152EA82EA60308A60208A6013E
:102EED00152EA82EA607A82EE6D3947F5008E52E02
:102EFD002404F8E67004C3022FF4C2C5D2C4C2C0C4
:102F0D0030C00812542E4003022FF4C2C4D2C51291
:102F1D00542E506A20C26720C364E5C054F064E0AB
:102F2D006003022FCA30C502C2C520C508A82EE60F
:102F3D00FF25E0F5C212542E500E20C20B30C108F1
:102F4D00E5C054F064C060028073A82E08860308A3
:102F5D00E6FA08E6125428500E20C20B30C108E5DF
:102F6D00C054F064C060028054D2C512542E500E6D
:102F7D0020C20B30C108E5C054F064E06002803D12
:102F8D00C2C5A82EE6FF25E04401F5C212542E500D
:102F9D000E20C20B30C108E5C054F064C060028041
:102FAD001CE52E2404F8E616603312542E500E2024
:102FBD00C20B30C308E5C054F06480600612500A9D
:102FCD00C38024A82E088603080806E6188602701A
:102FDD00010614F9E5C21214C9D2C180C4C2C1D20E
:102FED00C4C2C020C4FDD3C0D0E52E2405F52ED01B
:022FFD00D022E0
:1040CD00152E152E152EA82EA60308A60208A6013C
:1040DD00152EA82EA607A82EE6D3947F5008E52E00
:1040ED002404F8E67004C302417BC2C5D2C4C2C029
:1040FD0030C00712542E40028074C2C4D2C512546F
:10410D002E505B20C25820C355E5C054F064E060CA
:10411D0002804BC2C5A82EE6FF25E0F5C212542E33
:10412D00500E20C20B30C108E5C054F064C06002CF
:10413D00802CE52E2404F8E6166029A82E088603A7
:10414D00080806E618860270010614125428500E4F
:10415D0020C20B30C108E5C054F064C060D41250C9
:10416D000AC3800AC2C1D2C4C2C020C4FDD3C0D00C
:09417D00E52E2405F52ED0D02218
:06542800F9121483F5C225
:10542E007FF07EFFC2C020C009EF1F70011E144E18
:04543E0070F4A2C0A4
:015442002247
:10423C007B187D067F5B124BFE1253667B037D2C35
:10424C007F5B124BFE1253667BAC7D2D7F5B124B5A
:10425C00FE1253667B027D2E7F5B124BFE12536661
:10426C007B037D337F5B124BFE1253667BAC7D343C
:10427C007F5B124BFE1253667B027D357F5B124BCC
:10428C00FE1253667B037D3A7F5B124BFE12536624
:10429C007BAC7D3B7F5B124BFE1253667B027D3CFD
:1042AC007F5B124BFE1253667B037D417F5B124B8F
:1042BC00FE1253667BAC7D427F5B124BFE12536643
:0C42CC007B027D437F5B124BFE025366B9
:1042D8007B187D067F5B124BFE1253667B037D2C99
:1042E8007F5B124BFE1253667BAC7D2D7F5B124BBE
:1042F800FE1253667B027D2E7F5B124BFE125366C5
:104308007B037D337F5B124BFE1253667BAC7D349F
:104318007F5B124BFE1253667B027D357F5B124B2F
:10432800FE1253667B037D3A7F5B124BFE12536687
:104338007BAC7D3B7F5B124BFE1253667B027D3C60
:104348007F5B124BFE1253667B037D417F5B124BF2
:10435800FE1253667BAC7D427F5B124BFE125366A6
:0C4368007B027D437F5B124BFE0253661C
:10377B007D067F5B124ABFEF641860037F00221245
:10378B0053667D2C7F5B124ABFEF640360037F009F
:10379B00221253667D2D7F5B124ABFEF64AC600330
:1037AB007F00221253667D2E7F5B124ABFEF540FB0
:1037BB00640260037F00221253667D337F5B124AE3
:1037CB00BFEF640360037F00221253667D347F5B7F
:1037DB00124ABFEF64AC60037F00221253667D3543
:1037EB007F5B124ABFEF540F640260037F0022120B
:1037FB0053667D3A7F5B124ABFEF640360037F0021
:10380B00221253667D3B7F5B124ABFEF64AC6003B1
:10381B007F00221253667D3C7F5B124ABFEF540F31
:10382B00640260037F00221253667D417F5B124A64
:10383B00BFEF640360037F00221253667D427F5B00
:10384B00124ABFEF64AC60037F00221253667D43C4
:10385B007F5B124ABFEF540F640260037F00227F2D
:01386B00015B
:01386C002239
:10386D007D067F5B124ABFEF641860037F00221252
:10387D0053667D2C7F5B124ABFEF640360037F00AC
:10388D00221253667D2D7F5B124ABFEF64AC60033D
:10389D007F00221253667D2E7F5B124ABFEF540FBD
:1038AD00640260037F00221253667D337F5B124AF0
:1038BD00BFEF640360037F00221253667D347F5B8C
:1038CD00124ABFEF64AC60037F00221253667D3550
:1038DD007F5B124ABFEF540F640260037F00221218
:1038ED0053667D3A7F5B124ABFEF640360037F002E
:1038FD00221253667D3B7F5B124ABFEF64AC6003BF
:10390D007F00221253667D3C7F5B124ABFEF540F3E
:10391D00640260037F00221253667D417F5B124A71
:10392D00BFEF640360037F00221253667D427F5B0D
:10393D00124ABFEF64AC60037F00221253667D43D1
:10394D007F5B124ABFEF540F640260037F00227F3A
:01395D000168
:01395E002246
:024F1B008F47BE
:104F1D0075480AE4F5497F5B1253EFEF7002FF22EB
:104F2D00E548D394004022E54714600D0470121239
:104F3D0042D812386D8F49800812423C12377B8F50
:0B4F4D0049E5497004154880D7AF49C2
:014F58002236
:0253EF008F4AE3
:1053F100754B0AE47D0FAF4A124ABFEF642F600379
:0B540100D54BF1BF2F037F01227F007D
:01540C00227D
:07557800AD077F5B124ABF83
:01557F002209
:0B553F00AE05AB06AD077F5B024BFE24
:1053660074FFFFFEE4FDFCC3ED9FEC9E50070DBDF0
:1053760000010C80F2E4FDFCC3ED9FEC9E50070D8E
:06538600BD00010C80F2E5
:01538C0022FE
:031200000244980D
:0C449800787FE4F6D8FD7581AE0244DFA9
:0B553300E590540870037F01227F0008
:01553E00224A
:10121E00EC4D6011E8497017ED33EC3304600DE4CA
:10122E00FCFFFEFD22E933E8330470F802146E125F
:10123E00143958046009E4CC248150062850090260
:10124E001478284003021475C0E0EB4A7044B9804C
:10125E0006D0E0FB021464EF4E701CBD8008EBFF5D
:10126E00EAFEE9FD80EBE98DF0A4FEE5F00213073E
:10127E00E9CDF9EAFEEBFFEF89F0A4FCE5F0CE89AB
:10128E00F0A42EFFE435F0CD89F0A42DFEE435F068
:10129E008067EF4E7005BD80D780C3EF8BF0A4AC96
:1012AE00F0EE8BF0A42CFCE435F0F8EF8AF0A42CD1
:1012BE00E5F038FCE433CB8DF0A42CFCE5F03BF8E4
:1012CE00EE8AF0A42CFCE5F038F8E433CF89F0A4D4
:1012DE002CFCE5F038CF3400CE89F0A42FFFE5F0DA
:1012EE003EFEE433C98DF0A42EFEE5F039CD8AF032
:1012FE00A42FFFE5F03EFEE43DFD33D0E0FB5007AA
:10130E000BBB000F021478EC2CFCEF33FFEE33FE18
:06131E00ED33FD02145046
:10132400021478EC5D046005E85904700302146E3D
:10133400121439580460F6EC4860F2EC7004FDFEB7
:10134400FF22C860DB2481C85009C398600250069C
:101354000214759850CAF582E9294B4A7005AB828C
:1013640002146475F0007C1A7880C3EF9BEE9AED4A
:1013740099400DC3EF9BFFEE9AFEED99FDE842F014
:10138400DC23ACF0D0E0FFD0E0FED0E0FDAB822067
:10139400E7101BEB60BAEC2CFCEF33FFEE33FEEDF1
:1013A40033FD021450E803F830E705C0F075F0008F
:1013B400EF2FFFEE33FEED33FD40B830E7C280AAD5
:1013C40075F020800E75F010800575F0087D007EA4
:1013D400007F003392D530D5031215B0EC334010A2
:1013E400EF33FFEE33FEED33FDEC33FCD5F0ED22AD
:0E13F400E5F0247EA2D513CC92E7CDCEFF22E9
:10140200EDD2E7CD33EC3392D524814006E4FFFEE2
:10141200FDFC22FCE4CFCECDCC24E0501174FF8041
:10142200EDC3CC13CCCD13CDCE13CECF13CF0470DE
:07143200F030D5DE0215B019
:10143900E9D2E7C933E833F892D5EDD2E7CD33ECF9
:0714490033FC5002B2D52272
:10145000EC30E7100FBF000C0EBE00080DBD0004FD
:101460000BEB6014A2D5EB13FCED92E7FD2274FFA9
:10147000FCFDFEFF22E480F8A2D574FF13FC7D8002
:03148000E480EF16
:1044A40002400FE493A3F8E493A34003F68001F2DF
:1044B40008DFF48029E493A3F85407240CC8C33319
:1044C400C4540F4420C8834004F456800146F6DFE8
:1044D400E4800B01020408102040809054E6E47E3E
:1044E400019360BCA3FF543F30E509541FFEE493DD
:1044F400A360010ECF54C025E060A840B8E493A3A4
:10450400FAE493A3F8E493A3C8C582C8CAC583CACE
:10451400F0A3C8C582C8CAC583CADFE9DEE780BE86
:0154F30000B8
:10148300BB010689828A83E0225002E722BBFE0267
:09149300E32289828A83E493229A
:10149C00BB010CE58229F582E5833AF583E0225005
:1014AC0006E92582F8E622BBFE06E92582F8E2224F
:0D14BC00E58229F582E5833AF583E4932269
:1014C900BB010689828A83F0225002F722BBFE0102
:0214D900F322FC
:1014DB00F8BB010DE58229F582E5833AF583E8F047
:1014EB00225006E92582C8F622BBFE05E92582C8F3
:0214FB00F222DB
:1014FD00EF8DF0A4A8F0CF8CF0A428CE8DF0A42E03
:02150D00FE22BC
:10150F00BC000BBE0029EF8DF084FFADF022E4CCC0
:10151F00F875F008EF2FFFEE33FEEC33FCEE9DEC89
:10152F00984005FCEE9DFE0FD5F0E9E4CEFD22EDCF
:10153F00F8F5F0EE8420D21CFEADF075F008EF2F19
:10154F00FFED33FD4007985006D5F0F222C398FD0A
:05155F000FD5F0EA22A7
:10156400C2D5EC30E709B2D5E4C39DFDE49CFCEEA2
:1015740030E715B2D5E4C39FFFE49EFE12150FC3F6
:10158400E49DFDE49CFC800312150F30D507C3E4F1
:061594009FFFE49EFE2211
:10159A00C5F0F8A3E028F0C5F0F8E58215827002DC
:0615AA001583E038F02279
:0E15B000C3E49FFFE49EFEE49DFDE49CFC224C
:1015BE00EB9FF5F0EA9E42F0E99D42F0E89C45F083
:0115CE0022FA
:1015CF00E8600FECC313FCED13FDEE13FEEF13FFFA
:0315DF00D8F1221E
:1015E200E8600FEFC333FFEE33FEED33FDEC33FC67
:0315F200D8F1220B
:1015F500BB010789828A830216C95005E9F80216DC
:1016050053BBFE05E9F80216D589828A830216E1E5
:10161500BB010789828A830217335005E9F802174F
:0A16250027BBFE05E9F802173F227B
:10162F00BB010DE58229F582E5833AF58302173375
:10163F005007E92582F8021727BBFE07E92582F834
:04164F0002173F221D
:0C165300E6FC08E6FD08E6FE08E6FF22C3
:10165F00BB010789828A830216FE5005E9F802163C
:10166F00F1BBFE05E9F802170A89828A8302171770
:10167F00BB010DE58229F582E5833AF583021764F4
:10168F005007E92582F802174BBBFE07E92582F8C0
:04169F000217952277
:1016A300D083D082F8E4937012740193700DA3A3D6
:1016B30093F8740193F5828883E4737402936860EA
:0616C300EFA3A3A380DFEA
:0C16C900E0FCA3E0FDA3E0FEA3E0FF2294
:0C16D500E2FC08E2FD08E2FE08E2FF2251
:1016E100E493FC740193FD740293FE740393FF224F
:0D16F100E6FB08E6F908E6FA08E6CBF82269
:0C16FE00E0F8A3E0F9A3E0FAA3E0FB226F
:0D170A00E2FB08E2F908E2FA08E2CBF8225F
:10171700E493F8740193F9740293FA740393FB2228
:0C172700ECF608EDF608EEF608EFF622EE
:0C173300ECF0A3EDF0A3EEF0A3EFF02229
:0C173F00ECF208EDF208EEF208EFF222E6
:10174B00D083D082E493F608740193F60874029365
:09175B00F608740393F67404739C
:10176400A8828583F0D083D08212177B12177B1254
:10177400177B12177BE473E493A3C583C5F0C58379
:10178400C8C582C8F0A3C583C5F0C583C8C582C8CF
:011794002232
:10179500D083D082E493F208740193F20874029323
:0917A500F208740393F27404735A
:00000001FF
