:03120C000187FF58
:10391E00E4FF75F010EFA42400F582E5F03401F514
:10392E0083E4F075F010EFA42401F582E5F0340184
:10393E00F58374FFF075F010EFA42402F582E5F024
:10394E003401F583E4F075F010EFA42403F582E55D
:10395E00F03401F583E4F075F010EFA42404F58241
:10396E00E5F03401F583E4F075F010EFA42405F5CD
:10397E0082E5F03401F583E4F075F010EFA424062F
:10398E00F582E5F03401F583E4F075F010EFA42430
:10399E0007F582E5F03401F583E4F075F010EFA43D
:1039AE002408F582E5F03401F583E4F075F010EFAC
:1039BE00A42409F582E5F03401F583E4F075F010E6
:1039CE00EFA4240AF582E5F03401F583E4F075F0F6
:1039DE0010EFA4240BF582E5F03401F583E4F075C5
:1039EE00F010EFA4240CF582E5F03401F583E4F039
:1039FE00A3F075F010EFA4240EF582E5F03401F576
:103A0E0083E4F0A3F00FEF643B6003023920E47807
:083A1E0085F608F6788876FFB2
:013A2600227D
:101CE700152E152E152EA82EA60308A60208A60146
:061CF700E52E24FCF52E91
:101CFD00F80808E4F608F67885E6FFC3943B400340
:101D0D00021FA1E52E2404F8860308E6FA08E6F979
:101D1D00121483FE1424FD50087003021F33021F9A
:101D2D00A175F010EFA42400F582E5F03401F583E0
:101D3D00EEF090000112149CFE75F010EFA424013A
:101D4D00F582E5F03401F583EEF090000212149C5B
:101D5D00FE75F010EFA42402F582E5F03401F58351
:101D6D00EEF090000312149CFE75F010EFA4240306
:101D7D00F582E5F03401F583EEF090000412149C29
:101D8D00FE75F010EFA42404F582E5F03401F5831F
:101D9D00EEF090000512149CFE75F010EFA42405D2
:101DAD00F582E5F03401F583EEF090000612149CF7
:101DBD00FE75F010EFA42406F582E5F03401F583ED
:101DCD00EEF090000712149CFE75F010EFA424079E
:101DDD00F582E5F03401F583EEF090000812149CC5
:101DED00FE75F010EFA42408F582E5F03401F583BB
:101DFD00EEF090000912149CFE75F010EFA424096A
:101E0D00F582E5F03401F583EEF090000A12149C92
:101E1D00FE75F010EFA4240AF582E5F03401F58388
:101E2D00EEF075F010EFA4240CF582E5F03401F519
:101E3D0083E4F0A3F075F010EFA42401F582E5F032
:101E4D003401F583E0542F788866600508760180AB
:101E5D00037889067889E6FF7885E6FE75F010A48B
:101E6D00240BF582E5F03401F583EFF075F010EEFB
:101E7D00A42401F582E5F03401F583E0FF542F78B9
:101E8D0088F6EF30E712E52D25E0FFE52C33A82E7F
:101E9D000808F608A6078009A82E0808A62C08A68B
:101EAD002DAC29AD2AA82E0808E6FE08E6FF12156E
:101EBD000F7885E6FD75F010A4240EF582E5F0345B
:101ECD0001F583EEF0A3EFF075F010EDA4240EF5FF
:101EDD0082E5F03401F583E4F0A37420F075F01081
:101EED00EDA42400F582E5F03401F583E0B4022F72
:101EFD007885E6FF75F010A4240EF582E5F0340127
:101F0D00F583A3E030E01875F010EFA4240EF582F0
:101F1D00E5F03401F583E475F00112159A80D1785E
:101F2D0086061806806E7886E660697885E675F017
:101F3D0010A424F1F582E5F03400F583E0542FA8C8
:101F4D002E08F6A82EE4F6A82EE6C3943B5045E6DF
:101F5D0075F010A42401F582E5F03401F583E0F469
:101F6D006032A82EE675F010A42401F582E5F03458
:101F7D0001F583E0542F08667015A82EE675F01054
:101F8D00A42401F582E5F03401F583E04440F0A886
:041F9D002E0680B3D9
:071FA100E52E2407F52E22B6
:064B7D00E52E24FCF52EDC
:104B8300E49000CBF0A3F0A3F0A3F0A3F0A82E765B
:104B93000E9000C5E0A82E08F6A3E0A82E0808F69C
:104BA300A3E0FFE52E2403F8A607A82E08E6FDA838
:104BB3002EE6FF124CE4A82E08A607A82E0808E646
:104BC300FDA82EE6FF124CE4A82E0808A607E52E42
:104BD3002403F8E6FDA82EE6FF124CE4E52E240399
:0C4BE300F8A6077B00A92E7A0012417092
:074BEF00E52E2404F52E223F
:02261F008F47E3
:10262100E4F548F550F54FF54EF54D755C01F55B58
:10263100F55AF55975F010EFA42402F582E5F0344E
:1026410001F583E0FFE48F54F553F552F551AE5394
:10265100AD52AC5178081215E28F548E538D528CC5
:102661005175F010E547A42403F582E5F03401F536
:1026710083E0FFE5544FF554E553F553E552F55228
:10268100E551F551AF54AE53AD52FC78081215E245
:102691008F548E538D528C5175F010E547A424044C
:1026A100F582E5F03401F583E0FFE5544FF554E59B
:1026B10053F553E552F552E551F5511259AB8F4897
:1026C100E548B40109E52B70057F06124241E4F5A6
:1026D10058F557F556F555E47F18FEFDFCAB58AAA1
:1026E10057A956A855C31215BE40030227F8E5485D
:1026F10064017072FFFEFDFCA855C31215BE700384
:102701000227E0E47F01FEFDFCA855C31215BE704F
:10271100030227E0E47F02FEFDFCA855C31215BEAB
:1027210070030227E0E47F03FEFDFCA855C31215E8
:10273100BE70030227E0E47F06FEFDFCA855C3122C
:1027410015BE70030227E0E47F07FEFDFCA855C318
:102751001215BE70030227E0E47F0EFEFDFCA855B2
:10276100C31215BE6079A958AF5CAE5BAD5AAC59C6
:10277100A8011215E2EF5554FFEE5553FEED5552E7
:10278100FDEC5551FC4D4E4F6055AF471229D08F8E
:10279100508E4F8D4E8C4D855849E4FFFEE4FC78F8
:1027A100101215CF8F4AE4FFE54FFEE4FDFC7808D7
:1027B1001215CF8F4BE550FFE48F4CAD4AAF491254
:1027C1004CE48F4AAD4BAF49124CE48F4BAD4CAF4B
:1027D10049124CE48F4C7B007A007949124170E533
:1027E100582401F558E43557F557E43556F556E4C4
:1027F1003555F5550226D8E52BB4010DE54870098C
:0C280100FF7E3012591F124B7D85482BC2
:01280D0022A8
:0C424100152EA82EA607E52E24F6F52E5B
:10424D002404F8E4F608F6E52E2408F8760008763E
:10425D0001E52E240AF8E614601224FE601A14708B
:10426D000302430424FE601B24067021E52E240462
:10427D00F876000876088015E52E2404F8E4F60893
:10428D00F6800AE52E2404F876BD087630E52E2456
:10429D0006F8E4F608F6E52E2406F8E6FE08E6FF35
:1042AD00C3940FEE9400504FAD07E52E2408F9E7A7
:1042BD00FE09E7A805088005C333CE33CED8F9FF34
:1042CD00E52E2404F8EE56FEEF08564E701BA82E70
:1042DD00A605A82E08F6A82E0808F6E52E2403F844
:1042ED00E4F6FBA92EFA124170E52E2406F8080615
:0742FD00E61870A206809F85
:07430400E52E240BF52E222B
:02222800AB0702
:10222A00E4F561F562F563F564F568F567F566F559
:10223A0065F56975F010EBA42405F582E5F0340123
:10224A00F583E0756300F56475F010EBA42408F5D6
:10225A0082E5F03401F583E0756100F56275F010EE
:10226A00EBA4240CF582E5F03401F583E0FEA3E04B
:10227A00FF75F010EBA4240EF582E5F03401F58326
:10228A00E0FCA3E0C39FFDEC9EFCC3E5649562FFFE
:10229A00E5639561FE1214FD75F010EBA4240EF5AA
:1022AA0082E5F03401F583E0FCA3E0FD12150FAEE0
:1022BA0062EE2FF569AF69E48F68F567F566F56533
:1022CA00AF68AE67AD66AC6578081215E28F688EA6
:1022DA00678D668C6575F010EBA42406F582E5F02F
:1022EA003401F583E0756300F56475F010EBA424FE
:1022FA0009F582E5F03401F583E0756100F5627550
:10230A00F010EBA4240CF582E5F03401F583E0FE2D
:10231A00A3E0FF75F010EBA4240EF582E5F034017A
:10232A00F583E0FCA3E0C39FFDEC9EFCC3E5649546
:10233A0062FFE5639561FE1214FD75F010EBA424AB
:10234A000EF582E5F03401F583E0FCA3E0FD1215F9
:10235A000FAE62EE2FF569AF69E5684FF568E5677C
:10236A00F567E566F566E565F565AF68AE67AD667E
:10237A00AC6578081215E28F688E678D668C657574
:10238A00F010EBA42407F582E5F03401F583E0753B
:10239A006300F56475F010EBA4240AF582E5F034C5
:1023AA0001F583E0756100F56275F010EBA4240C69
:1023BA00F582E5F03401F583E0FEA3E0FF75F01045
:1023CA00EBA4240EF582E5F03401F583E0FCA3E0EA
:1023DA00C39FFDEC9EFCC3E5649562FFE5639561CE
:1023EA00FE1214FD75F010EBA4240EF582E5F0340C
:1023FA0001F583E0FCA3E0FD12150FAE62EE2FF5A6
:10240A0069AF69E5684FF568E567F567E566F566FA
:0C241A00E565F565AF68AE67AD66AC65C2
:012426002293
:0229D000AB0753
:1029D200E4F560F55FF55EF55D75F010EBA424009B
:1029E200F582E5F03401F583E06401705B75F01067
:1029F200EBA4240EF582E5F03401F583E0FEA3E0BA
:102A0200FF75F010EBA4240CF582E5F03401F58398
:102A1200E0FCA3E0C39FEC9E401475F010EBA424ED
:102A220001F582E5F03401F583E0F930E610AF03F9
:102A32001222288F608E5F8D5E8C5D022B75E930CD
:102A4200E603022B75022B6C75F010EBA42400F543
:102A520082E5F03401F583E0FA6402703075F0101B
:102A6200EBA4240CF582E5F03401F583A3E020E029
:102A720002806C75F010EBA4240CF582E5F03401B1
:102A8200F583A3E020E003022B75022B6CEA6403BA
:102A92006003022B7575F010EBA4240EF582E5F0AD
:102AA2003401F583E0FEA3E024FFFFEE34FFFE7560
:102AB200F010EBA4240CF582E5F03401F583E0FC80
:102AC200A3E0C39FEC9E401775F010EBA42401F520
:102AD20082E5F03401F583E0FA20E603022B687503
:102AE200F010EBA42405F582E5F03401F583E0FF54
:102AF200E48F60F55FF55EF55DAE5FAD5EAC5D786F
:102B0200081215E28F608E5F8D5E8C5D75F010EBA2
:102B1200A42406F582E5F03401F583E0FFE5604F79
:102B2200F560E55FF55FE55EF55EE55DF55DAF607D
:102B3200AE5FAD5EFC78081215E28F608E5F8D5E2F
:102B42008C5D75F010EBA42407F582E5F03401F5F5
:102B520083E0FFE5604FF560E55FF55FE55EF55EFA
:102B6200E55DF55D800DEA20E609E4F560F55FF5C7
:0B2B72005EF55DAF60AE5FAD5EAC5D78
:012B7D002235
:10574D007EFFE4FD75F010EDA42401F582E5F03443
:10575D0001F583E0FCF4600FEC542FC39F4004AEC1
:09576D000580040DBD3BDDAF0613
:015776002210
:1053E5007FFFE4FE75F010EEA42401F582E5F034AC
:1053F50001F583E0F460040EBE3BE9EED394004072
:105405001575F010EEA424F1F582E5F03400F5836E
:0B541500E0542FFF8005EE7002AF0690
:015420002269
:10577700E4FEFD75F010EDA42401F582E5F0340197
:10578700F583E0FCF4600FEC542FD39F4004AE0583
:0857970080040DBD3BDDAF06EF
:01579F0022E7
:102B7E0075F010EFA42401F582E5F03401F583E041
:102B8E00542FFE7CFFE4FB788AE6B401037FFF221C
:102B9E0075F010EBA42400F582E5F03401F583E026
:102BAE00F9604275F010EBA42401F582E5F03401D2
:102BBE00F583E0542F6E7027E920E723E920E61F06
:102BCE0075F010EBA4240BF582E5F03401F583E0EB
:102BDE00B5050C7887E66D6006AC03A60580060B7E
:102BEE00EB643B70A2ECF47044FB788AE6B401030C
:102BFE007FFF2275F010EBA42401F582E5F034017D
:102C0E00F583E0FDF46026ED542FB5061C75F0102B
:102C1E00EBA42400F582E5F03401F583E0FD20E716
:102C2E0008ED20E604AC0380040BBB3BBDECF47056
:102C3E0077FB788AE6B401037FFF2275F010EBA4D0
:102C4E002401F582E5F03401F583E0FDF46059EDE1
:102C5E00542F6E704D75F010EBA42401F582E5F043
:102C6E003401F583E030E63A75F010EBA42400F55C
:102C7E0082E5F03401F583E0FD30E62675F010EBC9
:102C8E00A42400F582E5F03401F583ED54BFF07510
:102C9E00F010EBA4240CF582E5F03401F583E4F09A
:102CAE00A3F00BEB643B708AECF47044FB788AE67D
:102CBE00B401037FFF2275F010EBA42401F582E529
:102CCE00F03401F583E0FDF46026ED542FB5061CBB
:102CDE0075F010EBA42400F582E5F03401F583E0E5
:102CEE00FD20E708ED20E604AC0380040BBB3BBDE2
:072CFE00BCFF02AC07AF04AC
:012D050022AB
:103EE500E4755601F555F554F553AF56AE55AD5439
:103EF500AC53780F1215E28F568E558D548C53E4C2
:103F0500F54E75F010E54EA42402F582E5F0340176
:103F1500F583E0FFE48F52F551F550F54FAE51AD05
:103F250050AC4F78081215E28F528E518D508C4F40
:103F350075F010E54EA42403F582E5F03401F58310
:103F4500E0FFE5524FF552E551F551E550F550E5E5
:103F55004FF54FAF52AE51AD50FC78081215E28FB8
:103F6500528E518D508C4F75F010E54EA42404F5FA
:103F750082E5F03401F583E0FFE5524FF552E55156
:103F8500F551E550F550E54FF54FE5525556FFE52E
:103F9500515555FEE5505554FDE54F5553FCAB566F
:103FA500AA55A954A853C31215BE70037F01220553
:0C3FB5004EE54E643B6003023F077F00B6
:013FC10022DD
:1043CF00E4F543FFF54453D9BF75C980748025D7F1
:1043DF00F5D71257A01257A01258321257A01257E2
:1043EF00A01257A01257A0125574BF010312430B0E
:1043FF00124F4712391E1255AA752810E5905437DF
:10440F00F5446423601A1259E8124D567F007E104E
:10441F00124A831251EAE4FF123DFE1252AC800899
:10442F0078867601788C7601788AE6B40103125784
:10443F00EE788BE6FF6007125611E4788BF6E523D2
:10444F0060031256C9788CE660DE7886E6D3940056
:10445F00401DE5277008788EE67003124F9E752871
:10446F00117886E6F51C852925852A2612242778BA
:10447F008AE6B401071257EEE4788CF6752810809F
:01448F00A785
:104F4700E4788CF6788AF6F570F56F7885F67886CA
:104F5700F6788876FFF51D751BFFF529752AC87544
:104F67002C0B752DB8F5257526C8F527F524F51CE6
:104F7700789176FFF521F522F51FF520788EF678E2
:104F87008BF6F51EF5237884F6787F76FF12599F06
:074F9700757301E4F52B2204
:10242700E4F546F545F521F522D2A9D28CC3E5227C
:10243700952DE521952C400302261A7886E6D3943C
:10244700005003022610E52360031256C975F010E9
:10245700E545A4240EF582E5F03401F583E0FEA3FB
:10246700E0FF75F010E545A4240CF582E5F0340192
:10247700F583E0FCA3E0C39FEC9E501CAF451226FA
:102487001F75F010E545A4240CF582E5F03401F53D
:1024970083E475F00112159A75F010E545A4240040
:1024A700F582E5F03401F583E0B4013575F010E508
:1024B70045A4240EF582E5F03401F583E0FEA3E0A0
:1024C700FF75F010E545A4240CF582E5F03401F51D
:1024D70083E0FCA3E0B50709ECB50605AF45122676
:1024E7001F75F010E545A4240EF582E5F03401F5DB
:1024F70083E0FEA3E0FF75F010E545A4240CF58208
:10250700E5F03401F583E0FCA3E06F7002EC6E7038
:102517005675F010E545A42401F582E5F03401F580
:1025270083E030E61675F010E545A42400F582E552
:10253700F03401F583E04440F0802C75F010E54558
:10254700A42400F582E5F03401F583E0FF20E717C6
:1025570075F010E545A42400F582E5F03401F58314
:10256700EF4480F07886167886E660621253E5E4D9
:10257700F51FF52075F010E545A42401F582E5F077
:102587003401F583E0542FB50711C3E520952AE5FB
:102597001F95295006788AE6B401EF75F010E545D6
:1025A700A42401F582E5F03401F583E0542FFF12EE
:1025B70057778F4575F010EFA4240BF582E5F034BB
:1025C70001F583E0FD122B7E8F45EFF4603B788A9F
:1025D700E664016034E4F51FF520788EE670031297
:1025E7003392E524600DE4F545F521F522F51FF555
:1025F70020F524C3E522952DE521952C50030224CF
:1026070042E4F521F522022442788AE66401600358
:07261700022434C2A9C28CA9
:01261E002299
:044A83008E498F4A7F
:104A8700E54A7004E54964106006E54A4549700542
:104A9700124D56800C752900752AC8752C0B752D7B
:104AA700B885496A854A6B754C00754D10E4F54B1E
:104AB700754C00754D10AE4CAF4D125165754C00DD
:104AC700754D10854D82854C83E0FF601BF460189F
:104AD700EFB40402154BAA4CA94D7B01121CE70544
:104AE7004BE54BC3943B40C87886E6D39400400817
:0B4AF700125369788C76012212532BB9
:014B02002290
:10591F008E6A8F6B7E007FC01251659000C0E0B41D
:06592F008303124B7D22F0
:1058D7007549FFE5905437F51D651B6007851D1B4E
:0758E70075240122E4F52401
:0158EE002297
:043FC200152E152E75
:103FC600A82E76FFE5905437A82E08F6E573600311
:103FD6001252ACA82E08E6121697401C00402A0181
:103FE600400E02403E03404C0440520540641040DF
:103FF6006411400E12403E13405E14405E15408030
:10400600214072230000408CA82E7606787FE66455
:10401600807073F68070A82E7605787FE6648070CF
:1040260065F68062A82E7602752900752A64787F67
:10403600E664807051F6804EA82E7606787FE66498
:10404600807043F68040A82E7608803AA82E760720
:10405600752900752A64802EA82E76098028A82E38
:104066007609787FE66480701DF6801AA82E76069B
:10407600787FE6B48010E4F6800CA82E7621787F4F
:10408600E6B48002E4F6A82EE6FFB4FF03E4F524C6
:05409600052E052E229D
:104F9E00123FC28F4C1253E58F4EE54EF46045051D
:104FAE004EE54C756B00C454F0F56AE4F54FF550C0
:104FBE00F54DAE4FAF50125165855082854F83E04F
:104FCE00FF6021F4601EE54E2440855082854F839C
:104FDE00A3F0AA4FA9507B01121CE7054DE54DC366
:044FEE00940640CE17
:014FF200229C
:10311100E4F5491253E58F4AE54AF4600512574D2B
:103121008F4BE54BC3943B400302325375F010E5DE
:103131004BA42401F582E5F03401F583E0542F65B9
:103141004A600302325375F010E54BA42400F58266
:10315100E5F03401F583E4F075F010E54BA42401AA
:10316100F582E5F03401F58374FFF075F010E54B5D
:10317100A42402F582E5F03401F583E4F075F01042
:10318100E54BA42403F582E5F03401F583E4F07501
:10319100F010E54BA42404F582E5F03401F583E455
:1031A100F075F010E54BA42405F582E5F03401F546
:1031B10083E4F075F010E54BA42406F582E5F034C4
:1031C10001F583E4F075F010E54BA42407F582E5E1
:1031D100F03401F583E4F075F010E54BA42408F513
:1031E10082E5F03401F583E4F075F010E54BA42499
:1031F10009F582E5F03401F583E4F075F010E54B53
:10320100A4240AF582E5F03401F583E4F075F010A9
:10321100E54BA4240BF582E5F03401F583E4F07568
:10322100F010E54BA4240CF582E5F03401F583E4BC
:10323100F0A3F075F010E54BA4240EF582E5F0340F
:1032410001F583E4F0A3F0788616788516054B0224
:05325100312D024F9E2B
:103392001258D7E524640160030234C1E590543722
:1033A20014602A24FE6026240324FB505224F56074
:1033B2004E24FC604A14601524F470030234A124E4
:1033C200FE70030234AD241E60030234C1E527708F
:1033D2000312595DE51CD394004009E5277005AF3F
:1033E2001C12280E12391E7527037F0312424178E0
:1033F2008DE6640370030234C1124F9E0234C1E5AC
:10340200276403707185252985262A12391EE4F561
:1034120027C2C5C2C4F5C1125A06E4F547E5477092
:10342200131257A07F631251218F470548E548C305
:10343200941440E9E547600312430BE51EB40311FF
:103442007F611251218F47E54760061236FF751ED4
:10345200037F03124241788DE6640360627F007E3F
:103462003012591FE51CD394004006E4FFFE124AB5
:1034720083751BFF8049E5277013788DE66403602E
:103482003E124B7D123111788C76018032E5276431
:1034920005702CF5247F031242411259FF802075DA
:1034A2002705E4788DF61257EE8011752705E4782A
:1034B2008DF61257EE124F9E788C7601E4F524AF0A
:0134C20024E5
:0134C30022E6
:0312060002586E1D
:10586E00C0E00522E522700205210520E520700228
:0B587E00051F758CFE758A0CD0E0320F
:031209000250DCB4
:1050DC00C0E0C0F0C083C082C0D075D000C000C09A
:1050EC0001C002C003C004C005C006C007C2AFC2E5
:1050FC00AA12553EC28BD2AAD2AFD007D006D00589
:10510C00D004D003D002D001D000D0D0D082D08334
:05511C00D0F0D0E032EC
:10553E00AFE4EF54F064F070211257A01257A0128E
:10554E0057A07F61125121EF600B1236FF751E03BB
:10555E00752301800A751E018005E4F51EF523747E
:05556E008025E4F5E4D6
:015573002215
:1056C900E4F51FF520D2A9D28CC3E5209496E51FF5
:1056D900940040F5C2A9C28CE5A05401FF1253A75A
:0B56E900E4F51FF520F523D2A9D28CB8
:0156F4002293
:1057A00074FFFFFEE4FDFCC3ED9FEC9E50070DBDB2
:1057B00000010C80F2E4FDFCC3ED9FEC9E50070D50
:0657C000BD00010C80F2A7
:0157C60022C0
:1055740075450AE4FFD2A9D28CE4F51FF520C3E5F2
:105584002094E8E51F940340F57F62125121EF64F3
:105594000160091545E545D3940050DDC2A9C28CCC
:0555A400E4F51FF520F5
:0155A90022DF
:1055AA00E4FF75450AD2A9D28C756A10F56BE4F549
:1055BA001FF520C3E5209432E51F940040F51254EC
:1055CA005DEF700CBFFF091545E545D3940050DE29
:0455DA00C2A9C28C14
:0155DE0022AA
:1058320053D9BF1259F81259C2125093125A061272
:0E584200593512599312596C1259CCD2AF221B
:0759F80075A90275B28222BD
:045A060075C1D5226F
:0A59C20075A40D75E10675E24022A0
:10509300E59620E7FB759601759708E59620E7FBF3
:1050A300759607759707E59620E7FB75960975973B
:1050B30007E59620E7FB75960B75970775D7E0E52F
:1050C3009620E7FB75960F75978043E602E59620D9
:0950D300E7FB75960175970122B7
:105935005389F0438901758CFE758A0C438E02C22A
:065945008DC28CC2A922F4
:0C599300438E08438920758DECD28E22D3
:0D596C0075D84053D9BF53D9F175FDFF2206
:0A59CC0075A14075F80D75A20522C3
:0859E800C28A75E4F0D2AA2284
:06120F00048062636461CB
:065046007B007890E6FFFC
:10504C00152EA82EA603152EA82EA605152EA82EB5
:06505C00A607152E152E1B
:10506200E52E2403F8E6A82EF6E52E2404F8E6A899
:105072002E08F6152EA82E76027B00A92E097A009C
:0A508200E52E2403F8E6FF12449027
:07508C00E52E2405F52E229C
:104EEE00F9E4355DFA1215F578081215E212161569
:0B4EFE000561AD617480255FF8E6FFE0
:104F0900152EA82EA605152EA82EA607152E152E88
:104F1900E52E2403F8E6A82EF6A82E08E4F6152EA9
:104F2900A82E7601FBA92E09FAE52E2403F8E6FF3F
:074F39001234C4A82EE6FFAC
:074F4000E52E2404F52E22EA
:10430B00E4788FF6788FE6FFC3940340030243CE25
:10431B0074802FF8E67890F6FF7B007D0012504CEE
:10432B007D011250467BFF7D121250487B007D139E
:10433B001250487BAA7D141250487BAA7D1512504F
:10434B00487BAA7D161250487BAA7D171250487BDA
:10435B00007D021250487B007D031250487D0412F1
:10436B0050467B007D051250487B007D061250485D
:10437B007B007D071250487B007D081250487B0064
:10438B007D091250487B007D0A1250487B007D0B43
:10439B001250487B007D0C1250487B007D0D125053
:1043AB00487B007D0E1250487B007D0F1250487BDE
:1043BB00007D101250487B007D11125048788F06FB
:0343CB0002430F9B
:0143CE0022CC
:0236FF00152E86
:103701007883E6A82EF6FF7B007D0012504C7B00EB
:103711007D01A82EE6FF12504C7BFF7D12A82EE6FC
:10372100FF12504C7B007D13A82EE6FF12504C7BFC
:103731002A7D14A82EE6FF12504C7B007D15A82E81
:10374100E6FF12504C7B007D16A82EE6FF12504C6E
:103751007B007D17A82EE6FF12504C7B007D02A84E
:103761002EE6FF12504C7B007D03A82EE6FF12507F
:103771004C7BF07D04A82EE6FF12504C7B007D05AA
:10378100A82EE6FF12504C7B007D06A82EE6FF1204
:10379100504C7B007D07A82EE6FF12504C7B007D2C
:1037A10008A82EE6FF12504C7B007D09A82EE6FFEB
:1037B10012504C7B007D0AA82EE6FF12504C7B0074
:1037C1007D0BA82EE6FF12504C7B007D0CA82EE647
:1037D100FF12504C7B007D0DA82EE6FF12504C7B52
:1037E100007D0EA82EE6FF12504C7B007D0FA82E07
:1037F100E6FF12504C7B007D10A82EE6FF12504CC4
:0B3801007B007D11A82EE6FF12504C4A
:03380C00052E2264
:0A512100152EA82EA607152E152E38
:10512B00A82E7603A82E08E4F6A82EE660187D18A4
:10513B000808E6FF124F09A82E08A607A82E16A8E6
:10514B002E08E6B4D2E3A82E08E6B4D2047F018081
:03515B00027F00D0
:07515E00052E052E052E228F
:10417000152E152E152EA82EA60308A60208A60198
:06418000E52E24F9F52EE6
:104186002407F8860308E6FA08E6F912148375F0A0
:1041960003A4A82EA6F008F690000112149CA82EDF
:1041A6000808F690000212149CFFE52E2403F8A6D8
:1041B6000790000312149CFFE52E2404F8A607A816
:1041C6002EE6FA08E6FB7C007D0FFFAE02121564B0
:1041D600E52E2405F8A6077C007D0FAF03AE02127C
:1041E6001564E52E2406F8A605E52E2405F8E6FF57
:1041F600C39400403FEFD394035039A82E0808E635
:10420600FBE52E2406F8E6FD74802FF8E6FF12542F
:104216002DE52E2403F8E6FBE52E2406F8E6041227
:104226005421E52E2404F8E6FBE52E2406F8E624C0
:0442360002125421FB
:07423A00E52E240AF52E22F7
:0C542100FDE52E2405F8E62480F8E6FFE7
:10542D00152EA82EA603152EA82EA605152EA82ED0
:02543D00A607C0
:10543F00A82E08E62402F57CA82E0808E6FBAD7C12
:07544F00A82EE6FF12504CED
:07545600052E052E052E2294
:0B599F007F0F9000507464F0A3DFFC49
:0159AA0022DA
:0E4CE400152EA82EA605152EA82EA607152EF5
:104CF200A82E0808E6A82EF6787FE6600418E6805B
:104D0200157884E664827041A82E08E62450F58264
:104D1200E43400F583E0FCE41213CEE4FBFA79C834
:104D22007842121327C004C005C006C007A82E0887
:104D320008E6FCE41213CED003D002D001D0001258
:0D4D4200121E121402A82EA607A82EE6FFCE
:074D4F00052E052E052E22A2
:063A27008B348A3589365C
:103A2D00E4754201F541F540F53F90000512149CF7
:103A3D00FFE48F3AF539F538F537AE39AD38AC3797
:103A4D0078081215E28F3A8E398D388C3790000632
:103A5D0012149CFFE53A4FF53AE539F539E538F59D
:103A6D0038E537F537AF3AAE39AD38FC7808121571
:103A7D00E28F3A8E398D388C3790000712149CFFE7
:103A8D00E53A4FF53AE539F539E538F538E537F5E5
:103A9D0037E4F53EF53DF53CF53BE47F0FFEFDFCCF
:103AAD00AB3EAA3DA93CA83BC31215BE5054A93E3E
:103ABD00AF42AE41AD40AC3FA8011215E2EF553A11
:103ACD00FFEE5539FEED5538FDEC55374D4E4F6037
:103ADD001AAB34AA35A93690000212149CFF74500B
:103AED00253EF582E43400F583EFF0E53E2401F543
:103AFD003EE4353DF53DE4353CF53CE4353BF53BE9
:103B0D008098AB34AA35A93690000312149C2480FA
:0C3B1D007884F6E4787FF61876FFF573E4
:013B29002279
:1051EA007B007A0079457F08122E77E545F4601D29
:1051FA00AD46AF45124CE48F46AD47AF45124CE47D
:10520A008F47AD48AF45124CE48F48800B7545086F
:10521A00E4F546F5477548FF7B007A007945024177
:01522A007013
:0617AE008B5C8A5D895E80
:1017B400E4F560E560B40419AB5CAA5DA95E75F05C
:1017C40004A4F58285F08312167300000000021C45
:1017D400DAE560B40F004003021CDA9017E6F8283B
:1017E400287302181302186B0218D0021935021C50
:1017F400DA02199A0219FF021A64021CDA021CDACC
:10180400021AC9021B2E021B93021BF8021C5DE480
:10181400F55F756102124F008F62E4FCFDFEAB5C64
:10182400AA5DA95E121615AB5CAA5DA95E124EF301
:101834008F62AB5CAA5DA95EC003C002C001121630
:1018440053EB4FFFEAFEE9FDE8FCD001D002D003E0
:10185400121615AB5CAA5DA95E124EF38F62AB5CE7
:10186400AA5DA95E021CBFE4F55F756105124F0015
:101874008F62E4FCFDFEAB5CAA5DA95E90000412DD
:10188400162FE92404F9E43A124EF28F62AB5CE5B8
:101894005E2404F9E4355DFAC003C002C0011216E7
:1018A40053EB4FFFEAFEE9FDE8FCD001D002D00380
:1018B400121615AB5CE55E2404124EEE8F62AB5C2F
:1018C400E55E2404F9E4355DFA021CBFE4F55F75B6
:1018D4006108124F008F62E4FCFDFEAB5CAA5DA9B7
:1018E4005E90000812162FE92408F9E43A124EF229
:1018F4008F62AB5CE55E2408F9E4355DFAC003C091
:1019040002C001121653EB4FFFEAFEE9FDE8FCD0DA
:1019140001D002D003121615AB5CE55E2408124E0A
:10192400EE8F62AB5CE55E2408F9E4355DFA021CD7
:10193400BFE4F55F75610B124F008F62E4FCFDFE9E
:10194400AB5CAA5DA95E90000C12162FE9240CF979
:10195400E43A124EF28F62AB5CE55E240CF9E43596
:101964005DFAC003C002C001121653EB4FFFEAFE3A
:10197400E9FDE8FCD001D002D003121615AB5CE5FA
:101984005E240C124EEE8F62AB5CE55E240CF9E42F
:10199400355DFA021CBF755F01756102124F008F3D
:1019A40062E4FCFDFEAB5CAA5DA95E900014121615
:1019B4002FE92414F9E43A124EF28F62AB5CE55E2F
:1019C4002414F9E4355DFAC003C002C001121653B1
:1019D400EB4FFFEAFEE9FDE8FCD001D002D0031290
:1019E4001615AB5CE55E2414124EEE8F62AB5CE51B
:1019F4005E2414F9E4355DFA021CBF755F0175615C
:101A040005124F008F62E4FCFDFEAB5CAA5DA95E8B
:101A140090001812162FE92418F9E43A124EF28FA6
:101A240062AB5CE55E2418F9E4355DFAC003C002DC
:101A3400C001121653EB4FFFEAFEE9FDE8FCD001AA
:101A4400D002D003121615AB5CE55E2418124EEEDC
:101A54008F62AB5CE55E2418F9E4355DFA021CBFC5
:101A6400755F01756108124F008F62E4FCFDFEABE7
:101A74005CAA5DA95E90001C12162FE9241CF9E4EF
:101A84003A124EF28F62AB5CE55E241CF9E4355DDC
:101A9400FAC003C002C001121653EB4FFFEAFEE97D
:101AA400FDE8FCD001D002D003121615AB5CE55E54
:101AB400241C124EEE8F62AB5CE55E241CF9E43507
:101AC4005DFA021CBF755F02756102124F008F62DE
:101AD400E4FCFDFEAB5CAA5DA95E90002812162F03
:101AE400E92428F9E43A124EF28F62AB5CE55E24F5
:101AF40028F9E4355DFAC003C002C001121653EBA5
:101B04004FFFEAFEE9FDE8FCD001D002D003121633
:101B140015AB5CE55E2428124EEE8F62AB5CE55E8D
:101B24002428F9E4355DFA021CBF755F027561056E
:101B3400124F008F62E4FCFDFEAB5CAA5DA95E90CF
:101B4400002C12162FE9242CF9E43A124EF28F627B
:101B5400AB5CE55E242CF9E4355DFAC003C002C039
:101B640001121653EB4FFFEAFEE9FDE8FCD001D069
:101B740002D003121615AB5CE55E242C124EEE8FD8
:101B840062AB5CE55E242CF9E4355DFA021CBF759A
:101B94005F02756108124F008F62E4FCFDFEAB5CCE
:101BA400AA5DA95E90003012162FE92430F9E43AB8
:101BB400124EF28F62AB5CE55E2430F9E4355DFAD7
:101BC400C003C002C001121653EB4FFFEAFEE9FD49
:101BD400E8FCD001D002D003121615AB5CE55E24FC
:101BE40030124EEE8F62AB5CE55E2430F9E4355D75
:101BF400FA021CBF755F0275610B124F008F62E41D
:101C0400FCFDFEAB5CAA5DA95E90003412162FE9C0
:101C14002434F9E43A124EF28F62AB5CE55E24346C
:101C2400F9E4355DFAC003C002C001121653EB4F4C
:101C3400FFEAFEE9FDE8FCD001D002D0031216153C
:101C4400AB5CE55E2434124EEE8F62AB5CE55E2441
:101C540034F9E4355DFA021CBF755F0275610E123A
:101C64004F008F62E4FCFDFEAB5CAA5DA95E9000B0
:101C74003812162FE92438F9E43A124EF28F62AB87
:101C84005CE55E2438F9E4355DFAC003C002C001A6
:101C9400121653EB4FFFEAFEE9FDE8FCD001D00237
:101CA400D003121615AB5CE55E2438124EEE8F623B
:101CB400AB5CE55E2438F9E4355DFAC003C002C0CC
:101CC40001121653EB4FFFEAFEE9FDE8FCD001D008
:101CD40002D0031216150560E560C3940F50030289
:021CE40017B730
:011CE60022DB
:022FC6008F4634
:102FC8007B017A0079101217AEE4F521F522F51F7E
:102FD800F520787FE6F5487681E4F547787EE6FFC8
:102FE80074492547F8A6070547E547B40FEED2A967
:102FF800D28CC3E52294D0E521940740030230FD2A
:10300800E4F547788AE6640170030230F3E5476423
:103018000470030230E7E547640870030230E7E50F
:1030280047640970030230E7E54630E709E547647D
:103038000770030230E7854758E54725E025E02477
:1030480010F582E43400F583A3E0FDA3A3E4FFFEBA
:10305800E4FC78101215CF8F59E54725E025E024C8
:1030680010F582E43400F583A3A3E0FEA3E4FFE4B3
:10307800FDFC78081215CF8F5AE54725E025E02496
:1030880010F582E43400F583E0FCA3A3E0FEA3E09E
:10309800FF8F5B74492547F8E6787EF6AD59AF583F
:1030A800124CE48F59AD5AAF58124CE48F5AAD5BAD
:1030B800AF58124CE48F5B7B007A0079581241704C
:1030C800E4F51FF520C3E5209405E51F940040F5BD
:1030D80074492547F8E6C39405400474FB26F605B1
:1030E80047E547C3940F500302300B788AE6640122
:1030F8006003022FFAC2A9C28CE4F521F522F51F5C
:08310800F520787FA648F57D53
:01311000229C
:023DFE008F46EE
:103E0000E4F521F522F51FF520787EE6F54CA67D38
:103E1000087681E4F54B744E254BF8E4F6054BE546
:103E20004BB40FF2D2A9D28CC3E52294B8E5219409
:103E30000B4003023EC8E4F54BE54B64046073E5B8
:103E40004B6408606DE54B640E6067E54630E7063D
:103E5000E54B6407605C7B007A007947AF4B122E1C
:103E600077E547F46058744E254BF8E6787EF6AD5A
:103E700048AF47124CE48F48AD49AF47124CE48F2E
:103E800049AD4AAF47124CE48F4A7B007A0079472C
:103E9000124170E4F51FF520C3E5209405E51F9459
:103EA0000040F5744E254BF8E6C3945F500474054A
:103EB00026F6054BE54BC3940F5003023E39788A32
:103EC000E664016003023E287F007E3012591FC263
:103ED000A9C28C787FA64D18E6F57DE4F521F52280
:043EE000F51FF520B5
:013EE40022BB
:022E77008F5D6D
:102E7900E4F55FF563F562F561F560F567F566F50B
:102E890065F564047E00A807088005C333CE33CEF8
:102E9900D8F9FFEE3395E08F678E66F565F564E442
:102EA900F55E75F010E55EA42401F582E5F03401C4
:102EB900F583E0F47003022F7275F010E55EA42427
:102EC90002F582E5F03401F583E0FFE48F63F562F2
:102ED900F561F560AE62AD61AC6078081215E28FFC
:102EE900638E628D618C6075F010E55EA42403F534
:102EF90082E5F03401F583E0FFE5634FF563E562B0
:102F0900F562E561F561E560F560AF63AE62AD61FB
:102F1900FC78081215E28F638E628D618C6075F002
:102F290010E55EA42404F582E5F03401F583E0FFA1
:102F3900E5634FF563E562F562E561F561E560F525
:102F490060E5635567FFE5625566FEE5615565FD18
:102F5900E56055644D4E4F6005755F01800B055E58
:102F6900E55E643B6003022EABE55F604AE55D12F6
:102F790014C975F010E55EA42405F582E5F0340165
:102F8900F583E09000011214DB75F010E55EA424CE
:102F990006F582E5F03401F583E09000021214DBB6
:102FA90075F010E55EA42407F582E5F03401F58398
:0C2FB900E09000030214DB74FF1214C946
:012FC50022E9
:10380F0012010200000000407C1830050000010288
:10381F00030109022900010100E000090400000171
:10382F000300000009210101000122380007058172
:10383F00030A000A0705010311000A0600FF090128
:10384F00A101050C0906A102190029661500250121
:10385F0085017508950B8102C00514092BA102196A
:10386F000129661500250185027508950B092C9114
:10387F0002C0C04C00000000010500010042000022
:10388F0000040000003000530065006C0065006309
:10389F0000740069007600650053007500730070B6
:1038AF000065006E00640045006E00610062006CF0
:1038BF000065006400000004000000010000000427
:1038CF00030904140341006C00690065006E007762
:1038DF00006100720065000E034100570031003592
:1038EF0000310037000C03300033002E0030003061
:1038FF000012034D005300460054003100300030D9
:0F390F00005500FF38CEFF38D2FF38E6FF38F4FE
:0D597900757901757A00757BA075780C2298
:0D5986007575017576007577B075740C228B
:103256009000B1E0FFE570600302338EEF1216971F
:1032660032A30132A30232A30332A30432BE0532D3
:10327600AC0632B20732DD0832E00932E30A32AF79
:103286000B32E60C32D40E32E91332F51C33691DCB
:1032960033711E337F1F331C830000338A7B017A10
:1032A6000079B1021CE70258EF0258BE788A76010F
:1032B6009000B2E0788DF622788CE6640170030205
:1032C60033919000B2E0788EF6788C7601227B01FD
:1032D6007A0079B00235E60247CF025507024B0362
:1032E6000259FF748025D7F5D775EF1002000090BC
:1032F60000B3E0FD14600A14601124026003023377
:10330600919000B2E0FF12409B80557B017A0079D4
:10331600B0123A27804A9000B1E09000C0F09000C9
:10332600B2E09000C1F09000B3E09000C2F09000CF
:10333600B4E09000C3F09000B5E09000C4F09000B7
:10334600B6E09000C5F09000B7E09000C6F090009F
:10335600B8E09000C7F0E4A3F0A3F0A3F0123B2A74
:10336600024B7D9000B2E0788BF6229000B2E0FF2F
:103376001259F09000A0EFF0229000B2E0FFA3E017
:0B338600FD0259B77528122212526C8C
:013391002219
:1058EF009000A0E528F0A3E51EF0E4A3F0A3F0A339
:0858FF00F0A3F0A3F0A3F022D6
:1058BE009000A07430F0A3F0A3F0A37433F0A3749F
:0958CE0030F0A3F0A3F0A3F022D6
:1057EE00788DE6FF6405600F12424112391EE4788F
:1057FE0086F67885F6F51CE4F570F56F788AF67501
:03580E002810223D
:0759FF00C2AF43D94080FE56
:025611008F45C3
:10561300EF24FE60181460172482600A14600E14CD
:10562300600D24827013AF45122FC6800C8005AF26
:0D56330045122FC6AF45123DFEE4788BF600
:015640002247
:0312030002597914
:035A120002325607
:045A0A000100000097
:10454900E50E700EE50F700AE5127006E5136402B8
:1045590060031258A4E50C247F601114602824021A
:104569007077E5107073E5116011806DE508B4048A
:1045790008E5107004E5116002805E7509FF750A8F
:104589005A750B0C8049E508B40404E510600280F3
:1045990048E511B4811BE519B4030B7509FF750AC8
:1045A9005A750B0A80097509FF750A5A750B0C8033
:1045B9001EE511B40121E519B4030B7509FF750A4C
:1045C9005A750B0A80097509FF750A5A750B0C751E
:1045D9001600751702800580001258A4E5186404B6
:1045E9006013E59620E7FB759611759740751801DC
:0645F900E4F514F51522A3
:1048EC00E508B40418E50C60616401605DE50E70C8
:1048FC0059E5107055E5127051E5136002804BE5D7
:10490C000C24FE7045E50F701DE511B48118E59679
:10491C0020E7FB75960E759701E59620E7FB7596DB
:10492C0011759740801FE50F7023E511B4011EE54A
:10493C009620E7FB75960E759701E59620E7FB75BB
:10494C009614759780E4F51980031258A4E5962007
:10495C00E7FB75960EE4F597E5186404600BE59695
:0A496C0020E7FB75961175974822AD
:10497600E508B40418E50C60616401605DE50E703D
:1049860059E5107055E5127051E5136002804BE54C
:104996000C24FE7045E50F701DE511B48118E596EF
:1049A60020E7FB75960E759701E59620E7FB759651
:1049B60011759710801FE50F7023E511B4011EE5F0
:1049C6009620E7FB75960E759701E59620E7FB7531
:1049D600961475972075190380031258A4E596203E
:1049E600E7FB75960EE4F597E5186404600BE5960B
:0A49F60020E7FB7596117597482223
:10522B00E50C7019E5107015E5117011E512700D94
:10523B00E5137009E50E7005E50F30E7031258A46E
:10524B00751805E50F60057508038003750802E501
:10525B00186404600BE59620E7FB7596117597486B
:01526B002220
:102D0600E50E24DF7003022DE6147003022DFB246A
:102D160022B406004003022E24902D26F82828739C
:102D2600022E0C022D38022D46022D67022DAA0214
:102D36002DBA7509FF750A38750B0F90380F80701C
:102D46007509FF750A38750B21903824E493FE90B7
:102D56003823E4937C002400F517EC3EF516022E8A
:102D660027E50FB4EE0E7509FF750A39750B00904D
:102D76003900803CE50FD394034003022E2475F0FE
:102D860003E50FA42412F582E5F03439F583E493C4
:102D9600FB740193FA740293F98B098A0AF50B12F4
:102DA6001483804A7509FF750A38750B2A90382AEC
:102DB600E493803AE50FB481107509FF750A3875FA
:102DC6000B3C90383CE4938025E50FB4011075095F
:102DD600FF750A38750B43903843E4938010803EA4
:102DE6007509FF750A38750B33903833E4937516F9
:102DF60000F517802C7509FF750A38750B4A75168C
:102E060000751738801BE511B405117509FF750AA1
:102E160038750B8275160075174C800580001258A0
:102E2600A4E50E6401601CE50E64026016E50E64FE
:102E3600036010E50E6404600AE50E64056004E5AF
:102E46000E7014C3E5139517E49516500AE5127033
:102E560006851216851317E51864046013E5962097
:102E6600E7FB759611759740751801E4F514F5158D
:012E76002239
:104E2900E50CB4801AE50E7016E50F7012E51070E6
:104E39000EE511700AE5127006E5136401600512AA
:104E490058A48028E508B4040F7509FF750A5A7536
:104E59000B0A751600751701E508B4030F7509FFEC
:104E6900750A5A750B0C751600751701E518640457
:104E79006013E59620E7FB75961175974075180143
:064E8900E4F514F515220A
:104C6F00E5086402601FE50C701BE5107017E51175
:104C7F007013E512700FE513700BE50E7007E50F5B
:104C8F00D3940140051258A48039E50FD394004006
:104C9F002C750804E4F519E59620E7FB75960E755B
:104CAF009701E59620E7FB759612759704E5962018
:104CBF00E7FB75960EE4F597125A0E8006750803FA
:104CCF00751903E5186404600BE59620E7FB7596EC
:054CDF00117597482249
:104FF300E5086404701FE50CB4811AE50E7016E52C
:105003000F7012E510700EE511700AE5127006E5D7
:1050130013640160051258A4800F7509FF750A5ABD
:10502300750B0C751600751701E51864046013E51C
:105033009620E7FB759611759740751801E4F514F2
:03504300F515223E
:1055DF00E50CB40118E5127014E5137010E50E70A8
:1055EF000CE50F7008E5107004E51160031258A464
:1055FF00E5186404600BE59620E7FB759611759727
:02560F0048222F
:035A15000258A490
:035A18000258A48D
:035A1B000258A48A
:10594B00E5186404600BE59620E7FB7596117597D7
:02595B004822E0
:1056F500121203857909857A0A857B0B7516008553
:105705007817E51864046013E59620E7FB75961194
:0C571500759740751801E4F514F5152295
:1057210012598685750985760A85770B8512168546
:105731001317E51864046013E59620E7FB759611CD
:0C574100759740751802E4F514F5152268
:104B0300E56F70739000B2E004605B24FEB40900AB
:104B13005062904B2375F003A4C58325F0C58373BE
:104B2300024B3E024B48024B77024B61024B43025E
:104B33004B4D024B57024B52024B5C756A1080215E
:104B4300756A50801C756A208017756A60801275BB
:104B53006A80800D756A708008756A908003756A33
:104B630040756B00800E9000B3E0756B00F56AA38F
:0A4B7300E0426BE4756F0102569CEE
:1047CF00E56F600302485C9000B2E004605B24FE7A
:1047DF00B4090050629047F275F003A4C58325F029
:1047EF00C5837302480D0248120248460248300240
:1047FF00481702481C02482602482102482B756AB6
:10480F00108021756A20801C756A508017756A6048
:10481F008012756A80800D756A708008756A908045
:10482F0003756A40756B00800E9000B3E0756B00E6
:10483F00F56AA3E0426BE4E56F7009124A00EF607E
:10484F000F124DC2757100757210756F0175700181
:01485F002236
:10526C007571007572107F0174B02FF582E43400F3
:10527C00F583E0FE0572E572AC717002057114F5F0
:10528C00828C83EEF00FBF0CDF756D00756E0B75A5
:0F529C0071007572101251A8E4F56DF56EF57082
:0152AB0022E0
:10550700757100757210E4FF0572E572AC71700277
:10551700057114F5828C8374FFF00FBF0BEA756D6C
:1055270000756E0B7571007572101251A8E4F57055
:06553700F56FF56DF56E45
:01553D00224B
:0E595D00E4F56AF56B124A00EF6003124DC2CA
:01596B002219
:02280E008F49F0
:10281000E549C3940250030229CFE4F56AF56B122F
:102820004A00124DC2E4F54AE54AC3954940030205
:1028300029CF75710075721075F010E54AA4240057
:10284000F582E5F03401F583E0540FFF0572E5727F
:10285000AC717002057114F5828C83EFF075F01085
:10286000E54AA42401F582E5F03401F583E0FF0593
:1028700072E572AC717002057114F5828C83EFF011
:1028800075F010E54AA42402F582E5F03401F583E1
:10289000E0FF0572E572AC717002057114F5828C6F
:1028A00083EFF075F010E54AA42403F582E5F034D7
:1028B00001F583E0FF0572E572AC717002057114D9
:1028C000F5828C83EFF075F010E54AA42404F582BC
:1028D000E5F03401F583E0FF0572E572AC7170023A
:1028E000057114F5828C83EFF075F010E54AA4248D
:1028F00005F582E5F03401F583E0FF0572E572AC81
:10290000717002057114F5828C83EFF075F010E59B
:102910004AA42406F582E5F03401F583E0FF057250
:10292000E572AC717002057114F5828C83EFF0755D
:10293000F010E54AA42407F582E5F03401F583E0C0
:10294000FF0572E572AC717002057114F5828C831B
:10295000EFF075F010E54AA42408F582E5F03401A3
:10296000F583E0FF0572E572AC717002057114F534
:10297000828C83EFF075F010E54AA42409F582E516
:10298000F03401F583E0FF0572E572AC7170020569
:102990007114F5828C83EFF075F010E54AA4240AD7
:1029A000F582E5F03401F583E0FF0572E572AC7164
:1029B0007002057114F5828C83EFF07571007572E9
:0F29C00010756D00756E0B1251A8054A0228287C
:0129CF0022E5
:103B2A00756A30756B00124A00124DC275710075C4
:103B3A0072109000C0E0FF0572E572AC7170020568
:103B4A007114F5828C83EFF09000C1E0FF0572E5F5
:103B5A0072AC717002057114F5828C83EFF09000DB
:103B6A00C2E0FF0572E572AC717002057114F5824C
:103B7A008C83EFF09000C3E0FF0572E572AC7170C0
:103B8A0002057114F5828C83EFF09000C4E0FF0502
:103B9A0072E572AC717002057114F5828C83EFF0D4
:103BAA009000C5E0FF0572E572AC717002057114F0
:103BBA00F5828C83EFF09000C6E0FF0572E572ACE7
:103BCA00717002057114F5828C83EFF09000C7E0E2
:103BDA00FF0572E572AC717002057114F5828C836F
:103BEA00EFF00572E572AE717002057114F5828EFE
:103BFA0083E4F00572E572AE717002057114F58204
:103C0A008E83E4F0857282857183F0F57175721086
:083C1A00F56D756E0B0251A857
:10409B008F348D35E534D39464400302416FE5359D
:1040AB00D39401400302416F756AA0756B00124AED
:1040BB0000124DC27571007572100572E572AE710A
:1040CB007002057114F5828E83E534F00572E5728A
:1040DB00AE717002057114F5828E83E535F00572B1
:1040EB00E572AE717002057114F5828E83E4F005F2
:1040FB0072E572AE717002057114F5828E83E4F075
:10410B000572E572AE717002057114F5828E83E44F
:10411B00F00572E572AE717002057114F5828E8333
:10412B00E4F00572E572AE717002057114F5828EC2
:10413B0083E4F00572E572AE717002057114F582BD
:10414B008E83E4F0F571757210F56D756E0B12516F
:10415B00A8787EA634123FC2E47884F67573017892
:05416B007EE6F57D2257
:1052AC00756AA0756B007F107E001251657E007FC1
:1052BC00108F828E83E0D3946440037464F08F82E9
:1052CC008E83A3E0D3940140078F828E83A3E4F0F6
:0F52DC008F828E83E0787EF6A3E02480787FF6C1
:0152EB0022A0
:1035E6008B348A358936756AB0756B00124A0012BB
:1035F6004DC2757100757210AB34AA35A9369000AC
:103606000212149CFF0572E572AC7170020571140A
:10361600F5828C83EFF090000312149CFF0572E58F
:1036260072AC717002057114F5828C83EFF0900014
:103636000412149CFF0572E572AC717002057114D8
:10364600F5828C83EFF090000512149CFF0572E55D
:1036560072AC717002057114F5828C83EFF00572FD
:10366600E572AE717002057114F5828E83E4F00581
:1036760072E572AE717002057114F5828E83E4F004
:103686000572E572AE717002057114F5828E83E4DF
:10369600F00572E572AE717002057114F5828E83C3
:1036A600E4F0F571757210F56D756E0B1251A8ABDD
:1036B60034AA35A93690000212149C752A00F52901
:1036C60090000312149C422AE52A45297005F52923
:1036D600752AC8AB34AA35A93690000412149C7515
:1036E6002D00F52C90000512149C422DE52D452C3D
:0936F6007006752C0B752DB8222D
:104D5600756AB0756B007D107C007F107E00125165
:104D6600657C007D108D828C83E0FFF4600AEF7510
:104D76002A00F529A3E0422AE52A45297005F529E6
:104D8600752AC88D828C83A3A3E0FFF46010EF75AB
:104D96002D00F52C8D828C83A3A3A3E0422DE52D57
:104DA600452C600BC3E52D952AE52C9529500C75ED
:0B4DB6002C0B752DB8752900752AC85C
:014DC10022CF
:0B566F00C2FF7F0112567AD2FA7F01C1
:10567A00438E10C2CAC2CF7E007C007D181214FD70
:10568A00C3E49FFFE49EF5CD8FCCD2CA30CFFDC2D2
:02569A00CA2222
:104A0000C2AFC2FA7F0112567A75A35020FF0B7F06
:104A10003212567A20FFF57F002212566FC2FA7FBB
:104A20000112567A75A30120FF0B7F3212567A20AD
:104A3000FFF57F0022C2FFE4F5A320FF0B7F3212B7
:104A4000567A20FFF57F002212566FC2FA7F0112BC
:104A5000567A75A30520FF0B7F3212567A20FFF598
:104A60007F0022C2FFE4F5A320FF0B7F3212567AAB
:104A700020FFF57F002212566FE5A320E0CDD2AFD4
:034A80007F012291
:10564100C2FA7F0112567A75A30630FFFD12566F1A
:10565100C2FA7F0112567A75A30530FFFDC2FFE43D
:0E566100F5A330FFFD12566FE5A320E0E32213
:10581100C2FA7F0112567A75A30530FFFDC2FFE47B
:10582100F5A330FFFDC2FF7F0112567AD2FAAFA372
:015831002254
:024DC200152EAC
:104DC400A82E76FFC2AF800AA82EE66402600C12F9
:104DD4005641125811A82EA60780EDC2FA7F01127F
:104DE400567A75A32030FFFDC2FFE4F5A330FFFD22
:104DF400C2FFE56A54F0F5A330FFFDC2FFE4F5A35A
:104E040030FFFD12566FC2FA75A30530FFFDC2FFD5
:104E1400E4F5A330FFFDC2FF125676E5A320E0E6D9
:024E2400D2AF0B
:034E2600052E2234
:084BF600152EA82EA607152EAE
:104BFE00A82E76FFC2AF800AA82EE66402600C12C1
:104C0E005641125811A82EA60780EDC2FA7F011246
:104C1E00567A75A30230FFFDC2FFE4F5A330FFFD07
:104C2E00C2FFE56AF5A330FFFDC2FFE56BF5A330C9
:104C3E00FFFDC2FFA82E08E6F5A330FFFD12566F4A
:104C4E00C2FA75A30530FFFDC2FFE4F5A330FFFDE8
:0C4C5E00C2FF125676E5A320E0E6D2AFBC
:054C6A00052E052E22BD
:10545D00C2AFC2FA7F0112567A75A30330FFFDC2A7
:10546D00FFE4F5A330FFFDC2FFE56AF5A330FFFDB4
:10547D00C2FFE56BF5A330FFFDC2FFE4F5A330FFDE
:09548D00FD12566FD2AFAFA3224D
:0451A800152E152E7D
:1051AC00A82EE4F608F6A92EC309E7956E19E79523
:1051BC006D5026857282857183E0FF124BF6057265
:1051CC00E57270020571056BE56B7002056AA82E1D
:0951DC000806E61870D00680CD2B
:0551E500052E052E223D
:02569C00152EC9
:10569E00A82EE4F6A82EE6C3940B501C12545DA857
:1056AE002EE624A0F582E43400F583EFF0056BE5D9
:0856BE006B7002056A0680DC36
:0356C600052E228C
:0D516500152E152EA82EA60608A607152E3D
:10517200A82EE4F6A82EE6C3940B502312545DA881
:105182002E080806E618860470010614F5828C8340
:0F519200EFF0056BE56B7002056AA82E0680D55D
:0751A100052E052E052E224C
:051215000318000303B3
:03121B0002473750
:10473700C0E0C0F0C083C082C0D075D000C000C048
:0D47470001C002C003C004C005C006C007C9
:10475400E59620E7FB759686E59620E7FB8597307E
:10476400E59620E7FB759682E59620E7FB85973171
:10477400E59620E7FB759684E59620E7FB8597325E
:10478400E53030E1031259D6E53030E2031259071F
:10479400E53130E003121FA8E53130E103125A0E6F
:1047A400E53230E103124E8FE53030E0031259DF79
:1047B400D007D006D005D004D003D002D001D00059
:0B47C400D0D0D082D083D0F0D0E03203
:10590700750802E59620E7FB759601759701E4F5A2
:0859170018751903751A03222B
:0859D6000534E53470020533CD
:0159DE0022A6
:0859DF000534E53470020533C4
:0159E700229D
:101FA800E59620E7FB75960EE4F597E59620E7FBA6
:101FB800759691E59620E7FB859733E518B4050DEE
:101FC800E59620E7FBE4F596850F97F518E533309D
:101FD800E20EE59620E7FB759611E4F597F51822D1
:101FE800E53330E419E59620E7FB759611759708F7
:101FF800E59620E7FB759611759780E4F518E518C6
:1020080060030220F5E53320E0030220F57B007A27
:1020180000790C7D087C007F201254CFE50FFE7CF0
:1020280000E4250EF50FEC3EF50EE511FEE4251053
:10203800F511EC3EF510E513FEE42512F513EC3E20
:10204800F512E50C547F64217039E50D24FE601DFE
:1020580014602424FA601014601814601F240A7095
:10206800201256F50220F51257210220F5125A15B2
:10207800807B12594B8076125A188071125A1B8035
:102088006C8067E50D24AB605C2455B40C00505A95
:1020980090209FF82828730220C30220C80220F24B
:1020A8000220CD0220F20220D20220D70220F20222
:1020B80020D90220DE0220E30220E8124549802DC3
:1020C8001248EC8028124976802312522B801E80F9
:1020D80014124E298017124C6F8012124FF3800D84
:1020E8001255DF8008122D0680031258A4E51864E3
:1020F800016003022189E53330E103022189E59675
:1021080020E7FB759691E59620E7FB859733E53345
:1021180030E40320E06B753302C3E5179440E516FD
:102128009400AB09AA0AA90B402D7D407C007F20B2
:102138001252EC7440250BF50BE4350AF50A74C00D
:102148002517F51774FF3516F51674402515F5157E
:10215800E43514F514800FAD17AC167F201252EC3D
:10216800433308E4F518E515B5130BE514B5120665
:10217800433308E4F518E59620E7FB759611853397
:1021880097E51864026003022227E59620E7FB75AD
:102198009691E59620E7FB859733E53320E0030227
:1021A8002227753340C3E5179440E5169400AB0920
:1021B800AA0AA90B402D7D407C007F201254CF74C1
:1021C80040250BF50BE4350AF50A74C02517F517F9
:1021D80074FF3516F51674402515F515E43514F514
:1021E80014800FAD17AC167F201254CF433308E488
:1021F800F518E515B5130BE514B51206433308E4D5
:10220800F518E5187008E50DB40903125A12E51817
:0F22180064046005E59620E7FB75961185339702
:012227002294
:045A0E00E4F5192280
:104E8F00E4F533E59620E7FB75960E759701E596E9
:104E9F0020E7FB759694E59620E7FBAF97E519B4ED
:104EAF00030CE59620E7FB75961475972022EF30DB
:104EBF00E60BE59620E7FB759614759780125986D9
:104ECF00E574FD7C00AB75AA76A9777F211254CFCC
:0E4EDF00125A12E59620E7FB759614E4F5973B
:014EED0022A2
:0654CF008B348A3589369A
:1054D500ED4C602D8F964396C0E4FFFEC3EF9DEE25
:1054E5009C501BE59620E7FBAB34AA35A9368F8285
:1054F5008E83E5971214DB0FBF00010E80DEE4F505
:01550500960F
:015506002282
:0A52EC008C348D358B368A378938F3
:1052F600E5354534602EE59620E7FB8F96E4FFFE04
:10530600C3EF9535EE9534501BAB36AA37A9388FC7
:10531600828E8312149CF597E59620E7FB0FBF005B
:04532600010E80DC18
:01532A002260
:1058A400E59620E7FB75960EE4F597E59620E7FB71
:0A58B40075961175972075180422EF
:10532B00E4F56A12545DEFF47033E4F54EE54E6428
:10533B00046021E54EB40E089000C0E06483601455
:10534B00854E4FE4F5507551F07552F0FB7A0079AC
:0D535B004F124170054EE54EC3940F40D037
:015368002222
:06536900E52E24FBF52EE9
:10536F00123EE5A82EEFF67028E51EB40323A82EF3
:10537F0008760FA82E0808E4F6E52E2403F8E4F6C5
:10538F00E52E2404F876FF7B00A92E097A0012413E
:01539F00709D
:0753A000E52E2405F52E2285
:10549600A9E27F0420842FAE071FEE602975E24043
:1054A600C285E4FE0EBEFFFCD2857DF07CFF208522
:1054B6000AED1DAA0470011C4A70F3E4FE0EBE0A32
:0854C600FCE4F5E280CE89E26E
:0154CE0022BB
:1034C400152E152E152EA82EA60308A60208A60151
:1034D400152EA82EA607A82EE6D3947F5008E52E15
:1034E4002404F8E67004C30235DBC2C5D2C4C2C0EA
:1034F40030C00812588F40030235DBC2C4D2C51253
:10350400588F506A20C26720C364E5C054F064E059
:1035140060030235B130C502C2C520C508A82EE635
:10352400FF25E0F5C212588F500E20C20B30C1089F
:10353400E5C054F064C060028073A82E08860308B6
:10354400E6FA08E6125889500E20C20B30C108E58D
:10355400C054F064C060028054D2C512588F500E1B
:1035640020C20B30C108E5C054F064E06002803D25
:10357400C2C5A82EE6FF25E04401F5C212588F50BB
:103584000E20C20B30C108E5C054F064C060028054
:103594001CE52E2404F8E616603312588F500E20D2
:1035A400C20B30C308E5C054F06480600612549620
:1035B400C38024A82E088603080806E6188602702D
:1035C400010614F9E5C21214C9D2C180C4C2C1D221
:1035D400C4C2C020C4FDD3C0D0E52E2405F52ED02E
:0235E400D022F3
:10449000152E152E152EA82EA60308A60208A60175
:1044A000152EA82EA607A82EE6D3947F5008E52E39
:1044B0002404F8E67004C302453EC2C5D2C4C2C09B
:1044C00030C00712588F40028074C2C4D2C512583F
:1044D0008F505B20C25820C355E5C054F064E060A3
:1044E00002804BC2C5A82EE6FF25E0F5C212588F08
:1044F000500E20C20B30C108E5C054F064C0600209
:10450000802CE52E2404F8E6166029A82E088603E0
:10451000080806E618860270010614125889500E23
:1045200020C20B30C108E5C054F064C060D41254FE
:1045300096C3800AC2C1D2C4C2C020C4FDD3C0D0B9
:09454000E52E2405F52ED0D02251
:06588900F9121483F5C2C0
:10588F007FF07EFFC2C020C009EF1F70011E144EB3
:04589F0070F4A2C03F
:0158A30022E2
:1045FF007B187D067F5B12504C1257C77B007D2CBA
:10460F007F5B12504C1257C77BAE7D2D7F5B1250D4
:10461F004C1257C77B027D2E7F5B12504C1257C72F
:10462F007B007D337F5B12504C1257C77BAE7D34BE
:10463F007F5B12504C1257C77B027D357F5B125048
:10464F004C1257C77B007D3A7F5B12504C1257C7F5
:10465F007BAE7D3B7F5B12504C1257C77B027D3C7C
:10466F007F5B12504C1257C77B007D417F5B12500E
:10467F004C1257C77BAE7D427F5B12504C1257C70F
:0C468F007B027D437F5B12504C0257C73A
:10469B007B187D067F5B12504C1257C77B037D2C1A
:1046AB007F5B12504C1257C77BAC7D2D7F5B12503A
:1046BB004C1257C77B027D2E7F5B12504C1257C793
:1046CB007B037D337F5B12504C1257C77BAC7D3421
:1046DB007F5B12504C1257C77B027D357F5B1250AC
:1046EB004C1257C77B037D3A7F5B12504C1257C756
:1046FB007BAC7D3B7F5B12504C1257C77B027D3CE2
:10470B007F5B12504C1257C77B037D417F5B12506E
:10471B004C1257C77BAC7D427F5B12504C1257C774
:0C472B007B027D437F5B12504C0257C79D
:103D14007D067F5B124F09EF641860037F00221257
:103D240057C77D2C7F5B124F09EF60037F0022127F
:103D340057C77D2D7F5B124F09EF64AE60037F0090
:103D4400221257C77D2E7F5B124F09EF540F640276
:103D540060037F00221257C77D337F5B124F09EF48
:103D640060037F00221257C77D347F5B124F09EF37
:103D740064AE60037F00221257C77D357F5B124F0C
:103D840009EF540F640260037F00221257C77D3A83
:103D94007F5B124F09EF60037F00221257C77D3B00
:103DA4007F5B124F09EF64AE60037F00221257C796
:103DB4007D3C7F5B124F09EF540F640260037F0068
:103DC400221257C77D417F5B124F09EF60037F00CA
:103DD400221257C77D427F5B124F09EF64AE600326
:103DE4007F00221257C77D437F5B124F09EF540FA8
:093DF400640260037F00227F01DC
:013DFD0022A3
:103C22007D067F5B124F09EF641860037F0022124A
:103C320057C77D2C7F5B124F09EF640360037F003F
:103C4200221257C77D2D7F5B124F09EF64AC6003D0
:103C52007F00221257C77D2E7F5B124F09EF540F50
:103C6200640260037F00221257C77D337F5B124FCD
:103C720009EF640360037F00221257C77D347F5B24
:103C8200124F09EF64AC60037F00221257C77D35E3
:103C92007F5B124F09EF540F640260037F00221210
:103CA20057C77D3A7F5B124F09EF640360037F00C1
:103CB200221257C77D3B7F5B124F09EF64AC600352
:103CC2007F00221257C77D3C7F5B124F09EF540FD2
:103CD200640260037F00221257C77D417F5B124F4F
:103CE20009EF640360037F00221257C77D427F5BA6
:103CF200124F09EF64AC60037F00221257C77D4365
:103D02007F5B124F09EF540F640260037F00227F32
:013D120001AF
:013D1300228D
:0253A7008F472E
:1053A90075480AE4F5497F5B125850EF7002FF22F5
:1053B900E548D394004022E54714600D04701212A9
:1053C900469B123C228F4980081245FF123D148FDB
:0B53D90049E5497004154880D7AF4932
:0153E40022A6
:025850008F4A7D
:10585200754B0AE47D0FAF4A124F09EF642F6003C4
:0B586200D54BF1BF2F037F01227F0018
:01586D002218
:0759F000AD077F5B124F09B8
:0159F700228D
:0B59B700AE05AB06AD077F5B02504C55
:1057C70074FFFFFEE4FDFCC3ED9FEC9E50070DBD8B
:1057D70000010C80F2E4FDFCC3ED9FEC9E50070D29
:0657E700BD00010C80F280
:0157ED002299
:0B59AB00E590540870037F01227F008C
:0159B60022CE
:0312000002486041
:0C486000787FE4F6D8FD7581910248A72E
:10121E00EC4D6011E8497017ED33EC3304600DE4CA
:10122E00FCFFFEFD22E933E8330470F802146E125F
:10123E00143958046009E4CC248150062850090260
:10124E001478284003021475C0E0EB4A7044B9804C
:10125E0006D0E0FB021464EF4E701CBD8008EBFF5D
:10126E00EAFEE9FD80EBE98DF0A4FEE5F00213073E
:10127E00E9CDF9EAFEEBFFEF89F0A4FCE5F0CE89AB
:10128E00F0A42EFFE435F0CD89F0A42DFEE435F068
:10129E008067EF4E7005BD80D780C3EF8BF0A4AC96
:1012AE00F0EE8BF0A42CFCE435F0F8EF8AF0A42CD1
:1012BE00E5F038FCE433CB8DF0A42CFCE5F03BF8E4
:1012CE00EE8AF0A42CFCE5F038F8E433CF89F0A4D4
:1012DE002CFCE5F038CF3400CE89F0A42FFFE5F0DA
:1012EE003EFEE433C98DF0A42EFEE5F039CD8AF032
:1012FE00A42FFFE5F03EFEE43DFD33D0E0FB5007AA
:10130E000BBB000F021478EC2CFCEF33FFEE33FE18
:06131E00ED33FD02145046
:10132400021478EC5D046005E85904700302146E3D
:10133400121439580460F6EC4860F2EC7004FDFEB7
:10134400FF22C860DB2481C85009C398600250069C
:101354000214759850CAF582E9294B4A7005AB828C
:1013640002146475F0007C1A7880C3EF9BEE9AED4A
:1013740099400DC3EF9BFFEE9AFEED99FDE842F014
:10138400DC23ACF0D0E0FFD0E0FED0E0FDAB822067
:10139400E7101BEB60BAEC2CFCEF33FFEE33FEEDF1
:1013A40033FD021450E803F830E705C0F075F0008F
:1013B400EF2FFFEE33FEED33FD40B830E7C280AAD5
:1013C40075F020800E75F010800575F0087D007EA4
:1013D400007F003392D530D5031215B0EC334010A2
:1013E400EF33FFEE33FEED33FDEC33FCD5F0ED22AD
:0E13F400E5F0247EA2D513CC92E7CDCEFF22E9
:10140200EDD2E7CD33EC3392D524814006E4FFFEE2
:10141200FDFC22FCE4CFCECDCC24E0501174FF8041
:10142200EDC3CC13CCCD13CDCE13CECF13CF0470DE
:07143200F030D5DE0215B019
:10143900E9D2E7C933E833F892D5EDD2E7CD33ECF9
:0714490033FC5002B2D52272
:10145000EC30E7100FBF000C0EBE00080DBD0004FD
:101460000BEB6014A2D5EB13FCED92E7FD2274FFA9
:10147000FCFDFEFF22E480F8A2D574FF13FC7D8002
:03148000E480EF16
:10486C000243CFE493A3F8E493A34003F68001F250
:10487C0008DFF48029E493A3F85407240CC8C3334D
:10488C00C4540F4420C8834004F456800146F6DF1C
:10489C00E4800B010204081020408090120CE47E8E
:1048AC00019360BCA3FF543F30E509541FFEE49311
:1048BC00A360010ECF54C025E060A840B8E493A3D8
:1048CC00FAE493A3F8E493A3C8C582C8CAC583CA03
:1048DC00F0A3C8C582C8CAC583CADFE9DEE780BEBB
:01121A0000D3
:10148300BB010689828A83E0225002E722BBFE0267
:09149300E32289828A83E493229A
:10149C00BB010CE58229F582E5833AF583E0225005
:1014AC0006E92582F8E622BBFE06E92582F8E2224F
:0D14BC00E58229F582E5833AF583E4932269
:1014C900BB010689828A83F0225002F722BBFE0102
:0214D900F322FC
:1014DB00F8BB010DE58229F582E5833AF583E8F047
:1014EB00225006E92582C8F622BBFE05E92582C8F3
:0214FB00F222DB
:1014FD00EF8DF0A4A8F0CF8CF0A428CE8DF0A42E03
:02150D00FE22BC
:10150F00BC000BBE0029EF8DF084FFADF022E4CCC0
:10151F00F875F008EF2FFFEE33FEEC33FCEE9DEC89
:10152F00984005FCEE9DFE0FD5F0E9E4CEFD22EDCF
:10153F00F8F5F0EE8420D21CFEADF075F008EF2F19
:10154F00FFED33FD4007985006D5F0F222C398FD0A
:05155F000FD5F0EA22A7
:10156400C2D5EC30E709B2D5E4C39DFDE49CFCEEA2
:1015740030E715B2D5E4C39FFFE49EFE12150FC3F6
:10158400E49DFDE49CFC800312150F30D507C3E4F1
:061594009FFFE49EFE2211
:10159A00C5F0F8A3E028F0C5F0F8E58215827002DC
:0615AA001583E038F02279
:0E15B000C3E49FFFE49EFEE49DFDE49CFC224C
:1015BE00EB9FF5F0EA9E42F0E99D42F0E89C45F083
:0115CE0022FA
:1015CF00E8600FECC313FCED13FDEE13FEEF13FFFA
:0315DF00D8F1221E
:1015E200E8600FEFC333FFEE33FEED33FDEC33FC67
:0315F200D8F1220B
:1015F500BB010789828A830216C95005E9F80216DC
:10160500BDBBFE05E9F80216D589828A830216E17B
:10161500BB010789828A830217335005E9F802174F
:0A16250027BBFE05E9F802173F227B
:10162F00BB010DE58229F582E5833AF58302173375
:10163F005007E92582F8021727BBFE07E92582F834
:04164F0002173F221D
:10165300BB010789828A830216FE5005E9F8021648
:10166300F1BBFE05E9F802170A89828A830217177C
:10167300BB010DE58229F582E5833AF58302176400
:101683005007E92582F802174BBBFE07E92582F8CC
:041693000217952283
:10169700D083D082F8E4937012740193700DA3A3E2
:1016A70093F8740193F5828883E4737402936860F6
:0616B700EFA3A3A380DFF6
:0C16BD00E6FC08E6FD08E6FE08E6FF2259
:0C16C900E0FCA3E0FDA3E0FEA3E0FF2294
:0C16D500E2FC08E2FD08E2FE08E2FF2251
:1016E100E493FC740193FD740293FE740393FF224F
:0D16F100E6FB08E6F908E6FA08E6CBF82269
:0C16FE00E0F8A3E0F9A3E0FAA3E0FB226F
:0D170A00E2FB08E2F908E2FA08E2CBF8225F
:10171700E493F8740193F9740293FA740393FB2228
:0C172700ECF608EDF608EEF608EFF622EE
:0C173300ECF0A3EDF0A3EEF0A3EFF02229
:0C173F00ECF208EDF208EEF208EFF222E6
:10174B00D083D082E493F608740193F60874029365
:09175B00F608740393F67404739C
:10176400A8828583F0D083D08212177B12177B1254
:10177400177B12177BE473E493A3C583C5F0C58379
:10178400C8C582C8F0A3C583C5F0C583C8C582C8CF
:011794002232
:10179500D083D082E493F208740193F20874029323
:0917A500F208740393F27404735A
:00000001FF
